:100000000C943E040C9442150C941B150C9466043D
:100010000C9466040C9466040C9466040C946604B8
:100020000C9466040C9466040C9466040C94C1153C
:100030000C9466040C9466040C9466040C94660498
:100040000C94D1140C9466040C948F150C946915BF
:100050000C9466040C9466040C9466040C94660478
:100060000C947D160C946604084AD73B3BCE016E77
:1000700084BCBFFDC12F3D6C74319ABD56833DDAFF
:100080003D00C77F11BED9E4BB4C3E916BAAAABE0E
:10009000000000803F00FB00003E000B0036000126
:1000A00000020003000000650054FFEF0000FA802A
:1000B000000B12820001000200000000000000009E
:1000C00000000000000000280000FFFF4581FFFF46
:1000D000FA7200000000000003E8000000010001C7
:1000E0007FFFFFFE8001001B0000000000000000F9
:1000F000000000000000004000004000000002CBB3
:1001000047A2200000002000000000000000400086
:1001100000006000000041FF000000000B2A00000A
:10012000165500002182FD872650FD800000001F2B
:100130000000000580000000000000010000000237
:10014000000000030000400000000000046F0002F7
:10015000653200005EC040000000000000000000AA
:10016000000000000000FB8C6F5DFD5D08D9007C85
:10017000733B006C12CC3200139D3200D0D632009B
:100180000800400001F4FFE6807902000000000052
:10019000D0D600002710FB00000040000000000047
:1001A000000000000000000000010000000000004E
:1001B0000100010000000000FA36FFBC308E00058F
:1001C000FBF0FFD95BC8FFD09ABE000010A9FFF476
:1001D0001EB200CEBBF700000001000000040002C8
:1001E00000020200000CFFC280000001800000CF6E
:1001F000800040000000000000000000000000003F
:1002000006000000001400000000000000000000D4
:1002100000000000000000000000000000000000DE
:100220000000000000000923A135000000000000CC
:1002300000000000000000000000033F68B67935B0
:1002400028BCC67ED16C8000FFFF4000000000008B
:10025000B26A000000000000000000000000000082
:100260003FF000000030000000000000000000002F
:10027000000000000000000000000000000000007E
:100280000000000040000000254D002F706D0000B0
:1002900005AE000C02D00000000000650054FFEF26
:1002A0000000000000000000010000440001000503
:1002B0008BC1000001000000000000650000005438
:1002C0000000FFEF00000000000000000000000040
:1002D000000000000000000000000000000000001E
:1002E000000000000000000000000000000000000E
:1002F00000000000000000000001000000020000FB
:1003000000000000000000000000000000000000ED
:1003100000000000000000000000000000000000DD
:10032000000000000000001B0000000000000000B2
:1003300000000000000000000000000000000000BD
:1003400000000000000000000000000000000000AD
:10035000000000000000001B000000000000000082
:10036000000000000000000000000000000000008D
:10037000000000000000000000000000000000007D
:10038000000000000000000000000000000000006D
:10039000000000000000D8DCBAA2F1DEB2B8B4A8B8
:1003A0008191F74A907F916AF3F9DBA8F9B0BAA07E
:1003B00080F2CE81F3C2F1C1F2C3F3CCA2B280F1DC
:1003C000C6D880BAA7DFDFDFF2A7C3CBC5B6F087F8
:1003D000A2942448703C95406834589B78A2F183DD
:1003E000922D557DD8B1B4B8A1D09180F270F37040
:1003F000F27C80A8F101B09887D943D886C988BA21
:10040000A1F20EB89780F1A9DFDFDFAADFDFDFF20C
:10041000AA4CCD6CA90CC92C97979797F1A989265E
:100420004666B0B4BA80ACDEF2CAF1B28C02A9B6AC
:100430009800890E161EB8A9B4992C547CB08AA8CD
:1004400096365676F1B9AFB4B083C0B8A89711B15B
:100450008F98B9AFF0240844106418F1A329557D92
:10046000AF83B593AFF0002850F1A3869F61A6DA61
:10047000DEDFD9FAA38696DB31A6D9F8DFBAA68FDC
:10048000C2C5C7B28CC1B8A2DFDFDFA3DFDFDFD810
:10049000D8F1B8A8B286B4980D355DB8AA98B087DF
:1004A0002D353DB2B6BAAF8C96198F9FA70E161E8A
:1004B000B49AB8AA872C547CB9A3DEDFDFA3B1803D
:1004C000F2C4CDC9F1B8A9B499830D355D89B9A33A
:1004D0002D557DB593A30E161EA92C547CB8B4B02F
:1004E000F19783A81184A50998A383F0DA2408441E
:1004F000106418D8F1A529557DA58595021A2E3AC4
:10050000565A4048F9F3A3D9F8F0988324084410C8
:1005100064189782A8F111F098A224084410641876
:10052000DAF3DED883A59401D9A302F1A2C3C5C72B
:10053000D8F18492A24DDA2AD84869D92AD86855C8
:10054000DA32D85071D932D8705DDA3AD85879D9C0
:100550003AD87893A34DDA2AD84869D92AD8685569
:10056000DA32D85071D932D8705DDA3AD85879D9A0
:100570003AD878A88A9AF02850789EF38818F19F84
:100580001D98A8D908D8C89F129EF315A8DA121092
:10059000D8F1AFC8978734B5B994A421F3D922D83C
:1005A000F22DF3D92AD8F235F3D932D881A460607C
:1005B00061D961D86C6869D969D8747071D971D8FA
:1005C000B1A384193D5DA3831A3E5E931030811060
:1005D00011B8B0AF8F94F2DA3ED8B49AA88729DA6E
:1005E000F8D8879A35DAF8D8879A3DDAF8D8B1B9C9
:1005F000A49885022E56A581000C14A397B08AF109
:100600002DD928D84DD948D86DD968D8B1840DDAFC
:100610000ED8A32983DA2C0ED8A3844983DA2C4C74
:100620000ED8B8B0A88A9AF520AADADFD8A840AACE
:10063000D0DADED8A860AADAD0DFD8F19786A83160
:100640009B069907AB9728889BF00C201440B8B004
:10065000B4A88C9CF0042851791D301438B282ABB8
:10066000D0982C505078789BF11AB0F08A9CA82929
:1006700051798B2951798A2470598B2058718A4479
:1006800069388B3940688A6448318B304960A58865
:10069000200971584468113964493019F1AC002CB3
:1006A000547CF08CA804285078F1889726A8599893
:1006B000AC8C02264666F0899CA829517924705991
:1006C000446938644831A98809205970AB11384011
:1006D00069A8193148608CA83C415C207C00F187F6
:1006E000981986A86E767EA999882D557D9EB9A306
:1006F0008A228A6E8A568A5E9FB183062646660ED5
:100700002E4E6E9DB8AD002C547CF2B18CB499B9CC
:10071000A32D557D8191AC38AD3AB58391AC2DD9DF
:1007200028D84DD948D86DD968D88C9DAE29D90420
:10073000AED851D904AED879D904D881F39DAD0093
:100740008DAE1981ADD901D8F2AEDA26D88E9129B5
:1007500083A7D9ADADADADF32AD8D8F1B0AC8991AE
:100760003E5E76F3AC2E2EF1B18C5A9CAC2C282830
:10077000289CAC3018A8988128343C9724A72834AA
:100780003C9C24F2B089AC912C4C6C8A9B2DD9D81E
:10079000D851D9D8D879D9D8D8F19E88A331DAD808
:1007A000D8912DD928D84DD948D86DD968D8B183DA
:1007B00093353D8025DAD8D88569DAD8D8B49381C5
:1007C000A328343CF3AB8BF8A391B609B4D9ABDEC4
:1007D000FAB0879CB9A3DDF1202830389AF128308F
:1007E000389DF1A3A3A3A3F2A3B49080F2A3A3A383
:1007F000A3A3A3A3A3A3A3B2A3A3A3A3A3A3B087C9
:10080000B599F128303898F1A3A3A3A397A3A3A384
:10081000A3F39BA330DCB9A7F1262626FED8FF0060
:10082000000000230026002900000000002400270B
:10083000002A0000000000250028002B000404040A
:100840000404040404020202020202030303030379
:100850000301020408102040800102040810200156
:100860000204081020000000080002010000030438
:1008700007000000000000000000E11711241FBE67
:10088000CFEFD8E0DEBFCDBF11E0A0E0B1E0E2E104
:10089000F5E402C005900D92AE32B107D9F723E01E
:1008A000AEE2B1E001C01D92A83EB207E1F714E04C
:1008B000CEE3D4E004C02197FE010E94111ECD3387
:1008C000D107C9F70E9427190C9487220C940000C5
:1008D000FC01538D448D252F30E0842F90E0821B46
:1008E000930B541710F0CF96089501970895FC01CB
:1008F000918D828D981761F0A28DAE0FBF2FB11D23
:100900005D968C91928D9F5F9F73928F90E008957A
:100910008FEF9FEF0895FC01918D828D981731F034
:10092000828DE80FF11D858D90E008958FEF9FEF88
:100930000895FC01918D228D892F90E0805C9F4F5E
:10094000821B91098F7399270895FC01A48DA80F2C
:10095000B92FB11DA35ABF4F2C91848D90E0019601
:100960008F739927848FA689B7892C93A089B18921
:100970008C91837080648C93938D848D981306C0C2
:100980000288F389E02D80818F7D80830895EF9226
:10099000FF920F931F93CF93DF93EC0181E0888F39
:1009A0009B8D8C8D98131AC0E889F989808185FF09
:1009B00015C09FB7F894EE89FF896083E889F989AB
:1009C00080818370806480839FBF81E090E0DF91AD
:1009D000CF911F910F91FF90EF900895F62E0B8D00
:1009E00010E00F5F1F4F0F731127E02E8C8D8E11BB
:1009F0000CC00FB607FCFACFE889F989808185FF22
:100A0000F5CFCE010E94A504F1CFEB8DEC0FFD2FA9
:100A1000F11DE35AFF4FF0829FB7F8940B8FEA89DC
:100A2000FB8980818062CFCFCF93DF93EC01888DEB
:100A30008823B9F0AA89BB89E889F9898C9185FD59
:100A400003C0808186FD0DC00FB607FCF7CF8C91E7
:100A500085FFF2CF808185FFEDCFCE010E94A504F6
:100A6000E9CFDF91CF9108958FE692E00E9499043B
:100A700021E0892B09F420E0822F089580E090E0A6
:100A8000892B29F00E94340581110C9400000895EF
:100A9000833081F028F4813099F08230A9F00895F4
:100AA0008730A9F08830C9F08430B1F4809180009B
:100AB0008F7D03C0809180008F77809380000895A0
:100AC00084B58F7784BD089584B58F7DFBCF8091E9
:100AD000B0008F778093B00008958091B0008F7D33
:100AE000F9CF1F93CF93DF93282F30E0F901EB5913
:100AF000F74F8491F901EF5AF74FD491F901E35C74
:100B0000F74FC491CC23A9F0162F81110E944805FC
:100B1000EC2FF0E0EE0FFF1FED5CF74FA591B491C5
:100B20008FB7F894EC91111108C0D095DE23DC93B7
:100B30008FBFDF91CF911F910895DE2BF8CFCF9318
:100B4000DF9390E0FC01EF5AF74F2491835C974FBD
:100B5000FC0184918823C9F090E0880F991FFC0163
:100B6000E75DF74FA591B491FC01ED5CF74FC5919E
:100B7000D49161110DC09FB7F8948C912095822378
:100B80008C938881282328839FBFDF91CF9108957C
:100B9000623051F49FB7F8943C91822F8095832363
:100BA0008C93E8812E2BEFCF8FB7F894EC912E2BFE
:100BB0002C938FBFEACF3FB7F8948091F9019091C1
:100BC000FA01A091FB01B091FC0126B5A89B05C0DC
:100BD0002F3F19F00196A11DB11D3FBFBA2FA92FBC
:100BE000982F8827BC01CD01620F711D811D911DB9
:100BF00042E0660F771F881F991F4A95D1F7089525
:100C00008F929F92AF92BF92CF92DF92EF92FF921C
:100C10004B015C010E94DB056B017C010E94DB053E
:100C20006C197D098E099F09683E73408105910505
:100C3000A8F321E0821A9108A108B10888EEC80E35
:100C400083E0D81EE11CF11C81149104A104B104BD
:100C500029F7FF90EF90DF90CF90BF90AF909F90DB
:100C60008F9008952FB7F8946091F5017091F60177
:100C70008091F7019091F8012FBF0895089508958C
:100C80000895AF92BF92CF92DF92EF92FF920F93AF
:100C90001F93CF93DF936C017B018B01040F151F12
:100CA000EB015E01AE18BF08C017D10759F069917A
:100CB000D601ED91FC910190F081E02DC6010995DE
:100CC000892B79F7C501DF91CF911F910F91FF908B
:100CD000EF90DF90CF90BF90AF9008954F925F92CA
:100CE0006F927F928F929F92AF92BF92CF92DF923C
:100CF000EF92FF92CF93DF9300D000D000D0CDB71A
:100D0000DEB79E838D836A017B01DC0114968D9191
:100D10009D910D90BC91A02D89839A83AB83BC8358
:100D2000ED81FE812081318142815381BC01CD0161
:100D30000E94181E9B01AC0169817A818B819C8184
:100D40000E94FB1E4B015C01AD81BE8154968D92C9
:100D50009D92AD92BC92579750964D905D906D903C
:100D60007C905397A3019201C701B6010E94171E00
:100D7000A50194010E948920A30192010E94181EDE
:100D80006B017C01ED81FE81C486D586E686F786FF
:100D9000AC019B01C301B2010E94171E9F77AD8178
:100DA000BE8118962D913D914D915C911B970E94AB
:100DB00089202B013C01A501940160E070E080E8EE
:100DC0009FE30E94171E29813A814B815C810E941A
:100DD00089209B01AC01C301B2010E94181EED8164
:100DE000FE816483758386839783C08AD18AE28A71
:100DF000F38AC701B60126960FB6F894DEBF0FBE80
:100E0000CDBFDF91CF91FF90EF90DF90CF90BF905B
:100E1000AF909F908F907F906F905F904F900895CC
:100E2000CF92DF92EF92FF92CF93DF93EC0160328B
:100E300082E07807CCF5653B710514F064EB70E057
:100E4000898128E830E0281B310987FD3395220F7E
:100E5000331F220F331F6901330FEE08FF088A8109
:100E600028E532E0281B310987FD3395220F331F17
:100E7000220F331F032E000C440B550B2C193D0978
:100E80004E095F09DB0177FF02C0B0E0A0E00E94DD
:100E9000CC1D24EB30E040E050E00E94A21DC20EC9
:100EA000D31EE41EF51EB601E881EC3070F52981F1
:100EB00088E890E0821B910927FD9395880F991F80
:100EC000880F991F681779077CF02A8188E592E0DE
:100ED000821B910927FD9395880F991F880F991FF1
:100EE000681779070CF4CB010297880F991F4FB749
:100EF000F8942E2F30E0F901EE0FFF1FE20FF31FE1
:100F0000E85EFC4F928381834FBFDF91CF91FF90CA
:100F1000EF90DF90CF9008951F93CF93DF93EC0174
:100F2000162F88818C3008F04EC061E0812F0E941E
:100F30009F058881282F30E0F901EE0FFF1FE20F97
:100F4000F31FE85EFC4F1F736081607C612B608340
:100F500019821A822CE0622F0E94051E829FB00126
:100F6000112430E020E0AB01420F531FFA01EE0FD5
:100F7000FF1FE40FF51FE85EFC4F908196FD16C041
:100F80002F5F3F4F2C30310571F781110FC0109248
:100F9000800082E08093810010928500109284008E
:100FA000B19A80916F00826080936F00E8818E2FEC
:100FB00090E0FC01EE0FFF1FE80FF91FE85EFC4F09
:100FC0008081806480838881DF91CF911F91089513
:100FD0002091AA01260F3327331F21323105ECF46B
:100FE00020916902FC0190E080E0243069F082E009
:100FF0000895A091AA012191AC0146575E4FA40F1C
:10100000B52FB11D2C930196861798F38091AA01F4
:10101000680F6093AA0180E0089581E0089510921E
:10102000690281E0809348021092430261E082E10C
:101030000E94710561E083E10E947105E9EBF0E037
:1010400080818E7F808380818D7F808388E4809300
:10105000B80085E48093BC000895CF93DF9391E0BE
:10106000909389018823B9F0C091B800D091BA005B
:101070008091BC008A7B8093BC0060E082E10E948A
:10108000710560E083E10E9471050E940F08D09312
:10109000BA00C093B800DF91CF910895CF92DF924C
:1010A000EF92FF920F931F93CF93DF93D82FC62F0A
:1010B000613208F098C00E94DB056B017C018091D1
:1010C000690281116BC081E08093690280934802BC
:1010D0009FEF90934702109246029C0F9093450217
:1010E0008093440280914402DD0FD82BD0934402B8
:1010F00080914302813009F078C0109243020E942F
:10110000DB056B017C01809144028093BB008091E0
:101110006B0290916C02A0916D02B0916E02892BCE
:101120008A2B8B2BA1F00E94DB0500916B021091A2
:101130006C0220916D0230916E026C197D098E094E
:101140009F09061717072807390708F448C0809138
:10115000BC0083FDD8CF85EC8093BC000E94DB05EA
:101160006B017C0180916902813009F440C080915B
:1011700046028C1710F4C0914602E3E2F2E0A9E4C3
:10118000B2E080E08C1355C08C2FDF91CF911F917E
:101190000F91FF90EF90DF90CF90089580916B02B8
:1011A00090916C02A0916D02B0916E02892B8A2BF6
:1011B0008B2B09F484CF0E94DB0500916B02109108
:1011C0006C0220916D0230916E026C197D098E09BE
:1011D0009F09061717072807390708F070CF809175
:1011E0006A020E942D08C0E0CFCF85EEB5CF809176
:1011F0006B0290916C02A0916D02B0916E02892BEE
:101200008A2B8B2B09F4AECF0E94DB0500916B0279
:1012100010916C0220916D0230916E026C197D0963
:101220008E099F09061717072807390708F09ACF74
:10123000D6CF91919D938F5FA5CF8F929F92AF92C2
:10124000BF92CF92DF92EF92FF920F931F93CF93B3
:10125000DF93D0912202D13208F0D7C0182FC0916D
:1012600021020E94DB056B017C01809169028111E2
:101270006BC082E080936902109348028FEF8093E5
:10128000470210924602D0934502A1E0B2E0E3E2A9
:10129000F2E080E0D81391C01092440280914402A1
:1012A000CC0FC82BC093440280914302813009F0D7
:1012B00088C0109243020E94DB056B017C01809183
:1012C00044028093BB0080916B0290916C02A091CC
:1012D0006D02B0916E02892B8A2B8B2BA1F00E949C
:1012E000DB0500916B0210916C0220916D02309130
:1012F0006E026C197D098E099F09061717072807CA
:10130000390708F442C08091BC0083FDD8CF85EC3A
:101310008093BC000E94DB056B017C018091690217
:10132000823009F450C0809147028F3F09F46FC0AA
:1013300080914702803209F46CC08091470280336B
:1013400009F469C084E026C080916B0290916C0220
:10135000A0916D02B0916E02892B8A2B8B2B09F420
:1013600084CF0E94DB0580906B0290906C02A0906D
:101370006D02B0906E026C197D098E099F09861668
:101380009706A806B90608F070CF80916A020E94FD
:101390002D0885E010920002109222021092FF01A7
:1013A000DF91CF911F910F91FF90EF90DF90CF9041
:1013B000BF90AF909F908F9008959D9191938F5F74
:1013C00069CF85EEA5CF80916B0290916C02A091C0
:1013D0006D02B0916E02892B8A2B8B2B09F49ECF64
:1013E0000E94DB0500916B0210916C0220916D024E
:1013F00030916E026C197D098E099F090617170737
:101400002807390708F08ACFC0CF81E0C3CF80E03A
:10141000C1CF82E0BFCF83E0BDCF0F931F93CF93A7
:10142000DF938A01E901209711F4CCE0D3E091E049
:101430009093FF01809321021092000210922202E9
:10144000E881F9810190F081E02DCE010995D80164
:1014500011966C91E881F9810190F081E02DCE0127
:101460000995E881F9810190F081E02DD8016C9116
:10147000CE01099581E00E941D0991E0811190E063
:10148000892FDF91CF911F910F910895DF92EF92F5
:10149000FF920F931F93CF93DF93E42ED22EF32E60
:1014A000E801209711F4CCE0D3E091E09093FF01A4
:1014B000809321021092000210922202E881F981A9
:1014C0000190F081E02DCE0109950D2D1F2DE00E2C
:1014D000F12EF11C0E151F0559F0F80161918F01D5
:1014E000E881F9810190F081E02DCE010995F2CFDC
:1014F00081E00E941D0991E0811190E0892FDF9128
:10150000CF911F910F91FF90EF90DF9008950F936F
:101510001F93CF93DF931F92CDB7DEB74983890125
:101520009E012F5F3F4F41E00E94460A0F90DF91DE
:10153000CF911F910F910895EFEBF3E0218132815C
:10154000482F6EE680810C94870A0895E091FE0191
:101550008091FD01E81730F4F0E0E75BFD4F8081FA
:1015600090E008958FEF9FEF08959091FE01809194
:10157000FD012FEF3FEF981748F4E92FF0E0E75B0C
:10158000FD4F208130E09F5F9093FE01C9010895D7
:101590008091FD019091FE01891B990B0895CF92D6
:1015A000DF92EF92FF920F931F93CF93DF937C0113
:1015B000CB018A012091FF01222389F0EB016B010D
:1015C000C40ED51ECC15DD0569F06991D701ED91EA
:1015D000FC910190F081E02DC7010995F3CF642FB4
:1015E0000E94E807C801DF91CF911F910F91FF90F2
:1015F000EF90DF90CF900895CF93DF931F92CDB7F8
:10160000DEB769832091FF012223F9F020912202A5
:10161000203258F021E030E0FC013383228390E057
:1016200080E00F90DF91CF91089580910002E82F24
:10163000F0E0EF5FFD4F998190838F5F8093000210
:101640008093220281E090E0ECCF61E0CE01019630
:101650000E94E807F7CF90E080E008950F931F9372
:101660000E94DB0500918501109186012091870180
:1016700030918801601771078207930700F10E947B
:10168000DB05009185011091860120918701309141
:101690008801601B710B820B930B6093DD017093CB
:1016A000DE018093DF019093E0010E94DB056093EF
:1016B00085017093860180938701909388011F9123
:1016C0000F9108950F931F930E94DB0500918101F4
:1016D000109182012091830130918401601771077C
:1016E0008207930700F10E94DB05009181011091B0
:1016F00082012091830130918401601B710B820B68
:10170000930B6093E3017093E4018093E501909360
:10171000E6010E94DB056093810170938201809352
:101720008301909384011F910F9108952F923F920E
:101730004F925F926F927F928F929F92AF92BF92E1
:10174000CF92DF92EF92FF920F931F93CF93DF938D
:1017500000D000D000D0CDB7DEB789836A83D42E05
:101760003C832B83FE82ED820E9432064B015C019A
:10177000ED80FE80EF2821F48CE093E09E838D8342
:10178000F12CE12CC12C2D2C312C2801712C612C39
:10179000E214F3040CF05DC091E09093FF01A98185
:1017A000A09321021092000210922202AD81BE810C
:1017B000ED91FC9111970190F081E02D6A81CD01AE
:1017C000099581E00E941D09B1016E197F096132FE
:1017D000710514F060E270E0613208F060E2898126
:1017E0000E944E081092FE018093FD01AD81BE81E2
:1017F000ED91FC9111970084F185E02DCD010995C3
:10180000892BF9F00115110589F4AD81BE81ED91A7
:10181000FC9111970284F385E02DCD010995EB81B0
:10182000FC81EC0DF11D8083C394E0CF0E94320651
:10183000681979098A099B09641575058605970554
:1018400020F38D2DB0E2BD1508F480E2E80EF11C06
:101850009FCF0115110589F00E9432066819790998
:101860008A099B0930E020E060177107820793071F
:1018700020F0CD1410F4CC24CA948C2D26960FB6EB
:10188000F894DEBF0FBECDBFDF91CF911F910F91B6
:10189000FF90EF90DF90CF90BF90AF909F908F9090
:1018A0007F906F905F904F903F902F900895EF92B0
:1018B000FF920F931F93CF93DF93CFEBD3E0E98099
:1018C000FA8008EE13E022EC33E042E062E7888120
:1018D0000E94960B8B819C81982789279827DF91FE
:1018E000CF911F910F91FF90EF900895EF92FF928B
:1018F0000F931F93CF93DF93EC01E980FA809C0153
:101900002D5F3F4F08EE13E041E06AE388810E94BB
:10191000960B8B81DF91CF911F910F91FF90EF90EC
:101920000895EF92FF920F931F93CF93DF931F922F
:10193000CDB7DEB7E090C003F090C10308EE13E02E
:101940009E012F5F3F4F41E065E78091BF030E94FA
:10195000960B882339F089818E7790E0959587954D
:101960008093C2038091C2030F90DF91CF911F91AA
:101970000F91FF90EF9008957F928F929F92AF9278
:10198000BF92CF92DF92EF92FF920F931F93CF936C
:10199000DF931F92CDB7DEB7A82E962E742E822E1F
:1019A000B02E08EE13E09E012F5F3F4F41E00E94F2
:1019B000960B882399F1872D8819990BAC014F5FFD
:1019C0005F4F81E090E002C0880F991F8A94E2F790
:1019D0000197042E01C0880F0A94EAF72B2D01C04D
:1019E000220F4A95EAF7482F4095B9804B21822370
:1019F000482B49839701692D8A2D0E94870A0F90F1
:101A0000DF91CF911F910F91FF90EF90DF90CF90DA
:101A1000BF90AF909F908F907F90089580E0EFCF20
:101A20008F929F92AF92BF92CF92DF92EF92FF92EE
:101A30000F931F93CF93DF931F92CDB7DEB7B82ECE
:101A4000A62E842E922E6801780108EE13E09E01E6
:101A50002F5F3F4F41E00E94960B81E090E001C074
:101A6000880F8A94EAF749819920A9F0482B498385
:101A700096016A2D8B2D0E94870A0F90DF91CF91DE
:101A80001F910F91FF90EF90DF90CF90BF90AF909C
:101A90009F908F90089580954823E9CF0F931F93CF
:101AA000FC010181128121E042E06AE680810E940E
:101AB000100D1F910F9108953F924F925F926F9278
:101AC0007F928F929F92AF92BF92CF92DF92EF92CE
:101AD000FF920F931F93CF93DF93782E662E6A01A8
:101AE0007901E8010E9432064B015C01209711F454
:101AF000CCE0D3E081E08093FF017092210210924C
:101B0000000210922202E881F9810190F081E02D1B
:101B1000662DCE01099581E00E941D0962E0872DA6
:101B20000E944E081092FE018093FD0101E010E03A
:101B30002701712C612C33243394E881F9810084CE
:101B4000F185E02DCE010995892BE9F111113BC0FA
:101B5000E114F104C9F4E881F9810284F385E02DF0
:101B600001110CC0CE010995F60120813181822B33
:101B7000932B9183808311E00325DFCFCE0109955C
:101B8000F60110828183F8CF0E9432066819790924
:101B90008A099B096415750586059705E0F20E9480
:101BA0003206AB01BC01481959096A097B09C70112
:101BB000B0E0A0E0481759076A077B0738F0111119
:101BC00005C01FEF03C0E114F10449F7812FDF9135
:101BD000CF911F910F91FF90EF90DF90CF90BF902A
:101BE000AF909F908F907F906F905F904F903F90BD
:101BF00008952F923F924F925F926F927F928F92B1
:101C00009F92AF92BF92CF92DF92EF92FF920F938B
:101C10001F93CF93DF93CDB7DEB7E7970FB6F89456
:101C2000DEBF0FBECDBF8F8F48A759A76AA77BA77E
:101C30000CA71DA72EA73FA78B3309F040C20E9417
:101C4000910C883308F4ADC297E79F8BA3E0AA8F6D
:101C5000E090C003F090C10308EE13E09E012F5FF7
:101C60003F4F41E06CE18091BF030E94960B8823B7
:101C700051F08981887190E023E0959587952A95A8
:101C8000E1F78093C2038091C20320E030E4790140
:101C900002C0F594E7948A95E2F76EE38FE692E04E
:101CA0000E94C704CE010D969E8B8D8BDE0111968E
:101CB000B98FA88F6C01BF880091C0031091C10338
:101CC00028EE33E0AE014D5E5F4F6B2D8091BF0378
:101CD0000E945C0D8B889C88B401092C000C880B39
:101CE000990B0E94A51FFF89F33109F4F0C121E08F
:101CF00082229924D6018D929C9220E030E040E02F
:101D000051E40E948920E88DF98D6083718382837C
:101D10009383BA8DBB0EE2E0CE0ED11C288D398D97
:101D20002C5F3F4F398F288F8D899E89281739075F
:101D300019F69F8D9B3309F0D8C18DEC9CECACE477
:101D4000BDE388AB99ABAAABBBABA6E0B0E0BFA349
:101D5000AEA3C701B0E0A0E08CAB9DABAEABBFAB18
:101D600019A218A2312C212CDE011196BE8FAD8F45
:101D7000FE013D96FBA3EAA3FF89FCA32F8D2DA3B3
:101D8000812C912C54011C8E1B8E0091C00310914C
:101D9000C10328EE33E0AE014D5E5F4F6DA180912F
:101DA000BF030E945C0D6B897C89072E000C880B99
:101DB000990B0E94A51F6B017C013F8D3B3391F471
:101DC0008B8D9C8D029771F46CA97DA98EA99FA91A
:101DD0000E94A31F9B01AC01C701B6010E94171E00
:101DE0006B017C012601370177FA709477F87094C3
:101DF000C501B4010E94A31F4B015C0120E030E04B
:101E0000A901C701B6010E947C20181614F07301C5
:101E10006201A7019601C501B4010E94181E0E942B
:101E2000741F4B015C012FE632E143E85AE3C30122
:101E3000B2010E9489202CA53DA54EA55FA50E9458
:101E40008920AD8DBE8D2D913D914D915C910E946B
:101E5000181E6B017C01ED8DFE8DC082D182E28265
:101E6000F38228A539A54AA55BA5C301B2010E944A
:101E70008920A70196010E94181EFF89F33109F4F9
:101E80003EC120E030E040E05EE30E9489206B012B
:101E90007C0120E030E0A9010E947C2020E030E0BD
:101EA00040E05FE387FD26C1C701B6010E94181E0E
:101EB0000E946D1F6E7FAAA1BBA18D919C91682B82
:101EC000792B7C8B6B8B2091C0033091C103AE01C9
:101ED0004D5E5F4F6CA18091BF030E940D0AEB8D98
:101EE000FC8D3196FC8FEB8FFDA1FE5FFDA32CA135
:101EF0003A8D230F2CA38AA19BA102969BA38AA3B0
:101F0000AD8DBE8D1496BE8FAD8FEB8DFC8D33974E
:101F100009F03BCFF3E62F16310471F429EE821657
:101F200023E09206A104B10438F06AE28FE692E061
:101F30000E94C704312C212CC501B4010E94A31FAB
:101F400028A939A94AA95BA90E94892020E030E08C
:101F500040EA50E40E94F61E87FF05C088A199A1BF
:101F6000019699A388A394E689169104A104B1046B
:101F700008F0E4C0ABE02A1631040CF4DFC0E8A19D
:101F8000F9A13A970CF4DAC06EE28FE692E00E9473
:101F9000C70420E030E040E45FE368A579A58AA5A6
:101FA0009BA50E94892068A779A78AA79BA720E004
:101FB00030E040E45FE36CA57DA58EA59FA50E945F
:101FC00089206CA77DA78EA79FA79E01235F3F4F07
:101FD0006901FF88CE0101963C01F3016191719185
:101FE000819191913F01FF89F33109F4BBC020E059
:101FF00030E040E05EE30E9489204B015C0120E07C
:1020000030E0A9010E947C2020E030E040E05FE366
:1020100087FDA3C0C501B4010E94181E0E946D1F58
:102020006E7FD6018D919C91682B792B7C8B6B8B6D
:102030002091C0033091C103AE014D5E5F4F6F2D03
:102040008091BF030E940D0ABA8DFB0EE2E0CE0E16
:10205000D11C288D398D2615370509F0BECF8EA1EC
:102060009FA101979FA38EA3892B09F079CE8FEBB7
:1020700093E00E944E0D0091C0031091C10321E036
:1020800043E06AE68091BF030E94100DE7960FB609
:10209000F894DEBF0FBECDBFDF91CF911F910F919E
:1020A000FF90EF90DF90CF90BF90AF909F908F9078
:1020B0007F906F905F904F903F902F90089523E115
:1020C0002F8B32E03A8FE12C80E2F82EE6CD20E033
:1020D00030E040E850E40E948920A88DB98D6D93CE
:1020E0007D938D939C93139714CE80E090E0A0E8AD
:1020F000BFE327CEC701B6010E94171ED9CE20E04C
:1021000030E040E85EE30E9489206B017C0120E022
:1021100030E0A9010E947C2020E030E040E05FE355
:1021200087FD07C0C701B6010E94181E0E946D1FDF
:10213000C8CEC701B6010E94171EF8CF61E070E05B
:1021400080E090E00E9400069FEF291A390AA4E679
:102150002A16310409F008CE17CFC501B4010E9438
:10216000171E5CCF20E030E040E85EE30E9489204B
:102170004B015C0120E030E0A9010E947C2020E0BE
:1021800030E040E05FE387FD07C0C501B4010E9475
:10219000181E0E946D1F4ACFC501B4010E94171E70
:1021A000F8CFB6E0BF8BE2E0EA8F52CD2F923F929C
:1021B0004F925F926F927F928F929F92AF92BF9257
:1021C000CF92DF92EF92FF920F931F93CF93DF9303
:1021D00000D000D0CDB7DEB73C014B01242E522EEB
:1021E000302E2091C0033091C1036DE68091BF0372
:1021F0000E94870A852D0E949C0A80E190E00E943F
:1022000055215C01002369F180E190E00E94552195
:102210009C838B83D12CC12CC6014096482C4C1832
:102220008816990610F080E1482E80E091E085192B
:1022300091094816190619F014F0452C41943320E1
:1022400099F0AB81BC8190E080E093012C0D3D1DA5
:10225000841578F4F901E80FF91FE491ED930196E4
:10226000F7CF1C821B82D6CFC3018C0D9D1D9C8392
:102270008B830091C0031091C1032B813C81442DBD
:102280006FE68091BF030E94460A842D90E09A83F6
:102290008983A114B10409F446C02091C003309190
:1022A000C103422D4F716DE68091BF030E94870AE2
:1022B000852D0E949C0AE090C003F090C10308EEB7
:1022C00013E09501442D6FE68091BF030E94960BA9
:1022D00049815A81B5018B819C810E947A22892B88
:1022E00011F1C5010E94F121332029F08B819C81DD
:1022F0000E94F121312C832D0F900F900F900F90A1
:10230000DF91CF911F910F91FF90EF90DF90CF90D1
:10231000BF90AF909F908F907F906F905F904F9005
:102320003F902F90089589819A81C80ED91EC814B4
:10233000D904B8F4540C09F423942091C0033091CB
:10234000C103422D4F716DE68091BF030E94870A41
:10235000852D0E949C0A60CF8B819C810E94F12177
:10236000CACFC5010E94F1213110F6CF3324339436
:10237000C2CF85ED8093BC0080916B0290916C027E
:10238000A0916D02B0916E020796A11DB11D23E0D0
:10239000B695A795979587952A95D1F72091BC007A
:1023A00024FD03C010926902089540916B02509180
:1023B0006C0260916D0270916E02452B462B472B8B
:1023C00069F30097A105B10541F025E32A95F1F7DE
:1023D00000000197A109B109E1CF80916A020C9434
:1023E0002D082F923F924F925F926F927F928F9221
:1023F0009F92AF92BF92CF92DF92EF92FF920F9394
:102400001F93CF93DF93CDB7DEB7E8970FB6F8945D
:10241000DEBF0FBECDBF8091D201811129C01A82CB
:1024200019821C821B821E821D8281E08F8329817A
:102430003A814B815C816D817E818F8190E0E8964D
:102440000FB6F894DEBF0FBECDBFDF91CF911F91C5
:102450000F91FF90EF90DF90CF90BF90AF909F9043
:102460008F907F906F905F904F903F902F90089546
:102470000E94910C843399F66090E2037090E3031C
:1024800069A20E94DB051B012C015301BB240E94A1
:10249000570C9C01A816B9060CF052C0893C910556
:1024A0003CF18FEB93E00E944E0D0E94570C9C0173
:1024B000892B09F048C00E94DB0562197309840961
:1024C0009509C090D003D090D103E090D203F09052
:1024D000D303C616D706E806F90638F787E0EAE31D
:1024E000F1E0DE01119601900D928A95E1F79FCF00
:1024F0000E94570C9C01A816B90614F56C01CA1865
:10250000DB08460181E2C816D1041CF080E2882E67
:10251000912C882099F0E090C003F090C10308EE60
:1025200013E09E012F5F3F4F482D64E78091BF036A
:102530000E94960BC818D90821F7DACF1982FACF72
:102540002115310559F2A216B306E9F00E94DB0508
:102550006219730984099509C090D003D090D10302
:10256000E090D203F090D303C616D706E806F9062A
:1025700008F08DCFB3CF1092410116C06BED7FE014
:1025800089E490ECCAC199A19923A9F3E090C00312
:10259000F090C10308EE13E021E431E0462D64E73A
:1025A0008091BF030E94960B609045017090460198
:1025B000762467247624C0904901D0904A01DC2417
:1025C000CD24DC24E0904D01F0904E01FE24EF2458
:1025D000FE2460914101709142017627672776279A
:1025E000072E000C880B990B0E94A51F20E030E0FD
:1025F00040E858E30E9489204B015C018092A903C6
:102600009092AA03A092AB03B092AC03B301770CF3
:10261000880B990B0E94A51F20E030E040E858E3AA
:102620000E9489202B013C014092AD035092AE03E1
:102630006092AF037092B003B601DD0C880B990B6A
:102640000E94A51F20E030E040E858E30E94892066
:1026500069A37AA38BA39CA36093B1037093B20385
:102660008093B3039093B403B701FF0C880B990BCD
:102670000E94A51F20E030E040E858E30E94892036
:102680006DA37EA38FA398A76093B5037093B60341
:102690008093B7039093B8039B01AC01C301B201CF
:1026A0000E9489206B017C0129A13AA14BA15CA168
:1026B000C501B4010E9489209B01AC01C701B6018C
:1026C0000E94171E9B01AC010E94181E69AB7AABD9
:1026D0008BAB9CAB60939D0370939E0380939F0391
:1026E0009093A003A3019201C501B4010E94892027
:1026F0006B017C012DA13EA14FA158A569A17AA132
:102700008BA19CA10E9489209B01AC01C701B6014D
:102710000E94181E9B01AC010E94181E6DA77EA787
:102720008FA798AB6093A1037093A2038093A30338
:102730009093A403A5019401C501B4010E948920CE
:102740006B017C01A3019201C301B2010E948920A7
:102750009B01AC01C701B6010E94171E6B017C01F1
:1027600029A13AA14BA15CA1CA01B9010E9489200B
:102770009B01AC01C701B6010E94171E6B017C01D1
:102780002DA13EA14FA158A5CA01B9010E948920DF
:102790009B01AC01C701B6010E94181E69A77AA768
:1027A0008BA79CA76093A5037093A6038093A703B0
:1027B0009093A803A5019401C501B4010E94181EBD
:1027C0006B017C01A3019201C301B2010E94181E9A
:1027D0006DAB7EAB8FAB98AFA5019401C701B6017D
:1027E0000E9489204B015C01A30192016DA97EA981
:1027F0008FA998AD0E9489209B01AC01C501B4014D
:102800000E94181E20E030E040E85FE30E94171E9F
:102810004B015C0129A13AA14BA15CA16DA97EA944
:102820008FA998AD0E9489202B013C012DA13EA1CA
:102830004FA158A5C701B6010E9489209B01AC0198
:10284000C301B2010E94171EA50194010E94971EA8
:102850006B017C01C0922E01D0922F01E0923001D9
:10286000F09231012DA53EA54FA558A9CA01B90185
:102870000E9489204B015C0129A53AA54BA55CA5C6
:10288000CA01B9010E9489209B01AC01C501B401B4
:102890000E94181E0E94FC209B01AC0169A97AA924
:1028A0008BA99CA90E94971E4B015C01809232016A
:1028B00090923301A0923401B092350129A53AA536
:1028C0004BA55CA56DA57EA58FA598A90E94971E16
:1028D0002B013C0140923601509237016092380141
:1028E0007092390120E030E0A90169A57AA58BA595
:1028F0009CA50E94F61E87FF1AC020E030E0A901C7
:10290000C501B4010E947C20A501940118160CF0A9
:1029100035CE6BED7FE089E490E40E94171E609352
:10292000320170933301809334019093350120EE8E
:102930003EE245E652E4C701B6010E9489200E94AA
:102940006D1F6B0120EE3EE245E652E4C301B20189
:102950000E9489200E946D1F4B0120EE3EE245E659
:1029600052E4609132017091330180913401909171
:1029700035010E9489200E946D1FD0923B01C092B8
:102980003A0190923D0180923C0170933F01609327
:102990003E01DA82C9829C828B827E836D831F8294
:1029A00046CD1F920F920FB60F9211242F933F9393
:1029B0008F939F93AF93BF938091F5019091F60110
:1029C000A091F701B091F8013091F40123E0230FB9
:1029D0002D3758F50196A11DB11D2093F401809368
:1029E000F5019093F601A093F701B093F80180915F
:1029F000F9019091FA01A091FB01B091FC010196BF
:102A0000A11DB11D8093F9019093FA01A093FB01E0
:102A1000B093FC01BF91AF919F918F913F912F9106
:102A20000F900FBE0F901F90189526E8230F029667
:102A3000A11DB11DD2CF1F920F920FB60F9211247C
:102A40002F933F934F935F936F937F938F939F93B6
:102A5000AF93BF93EF93FF93E0910201F0910301D5
:102A60000995FF91EF91BF91AF919F918F917F91C8
:102A70006F915F914F913F912F910F900FBE0F90EB
:102A80001F9018951F920F920FB60F9211242F933B
:102A90003F934F935F936F937F938F939F93AF93E6
:102AA000BF93EF93FF93E0910001F091010109952D
:102AB000FF91EF91BF91AF919F918F917F916F9116
:102AC0005F914F913F912F910F900FBE0F901F90EC
:102AD00018951F920F920FB60F9211242F933F93C8
:102AE0004F935F936F937F938F939F93AF93BF9316
:102AF000EF93FF938FE692E00E94A504FF91EF9180
:102B0000BF91AF919F918F917F916F915F914F9105
:102B10003F912F910F900FBE0F901F9018951F920D
:102B20000F920FB60F9211242F938F939F93EF93D1
:102B3000FF93E0917F02F09180028081E091850215
:102B4000F091860282FD1BC09081809188028F5F88
:102B50008F7320918902821741F0E0918802F0E0A2
:102B6000E159FD4F958F80938802FF91EF919F91DE
:102B70008F912F910F900FBE0F901F90189580810D
:102B8000F4CF1F920F920FB60F9211242F933F9301
:102B90004F935F936F937F938F939F93AF93BF9365
:102BA000CF93DF93EF93FF938091CD01C0913C03CE
:102BB000D0E087FF24C0109285001092840080919D
:102BC000CD018F5F8093CD018091CD01082E000C47
:102BD000990B8C179D0724F48091CD018C30C4F1A2
:102BE0008091840090918500049680349C4908F47B
:102BF0007AC08091840090918500049676C080917F
:102C0000CD01082E000C990B8C179D07C4F6E0919E
:102C1000CD018E2FEE0F990BFC01EE0FFF1FE80F79
:102C2000F91FE85EFC4F808186FFC9CFE091CD019E
:102C30008E2FEE0F990BFC01EE0FFF1FE80FF91F0F
:102C4000E85EFC4F808160E08F730E947105B7CF12
:102C50002091840030918500E091CD018E2FEE0F00
:102C6000990BFC01EE0FFF1FE80FF91FE85EFC4F08
:102C700081819281820F931F9093890080938800B5
:102C8000E091CD018E2FEE0F990BFC01EE0FFF1F8F
:102C9000E80FF91FE85EFC4F808186FF11C0E091CC
:102CA000CD018E2FEE0F990BFC01EE0FFF1FE80FE9
:102CB000F91FE85EFC4F808161E08F730E9471050F
:102CC000FF91EF91DF91CF91BF91AF919F918F9144
:102CD0007F916F915F914F913F912F910F900FBE18
:102CE0000F901F90189580E49CE990938900809341
:102CF00088008FEF8093CD01E3CF1F920F920FB624
:102D00000F9211242F933F934F935F936F937F9371
:102D10008F939F93AF93BF93EF93FF938091B900ED
:102D2000887F803609F44AC0F0F5883209F4A7C0DC
:102D300018F5803109F49BC0B8F4882309F4F9C070
:102D4000883009F494C0FF91EF91BF91AF919F91AA
:102D50008F917F916F915F914F913F912F910F9044
:102D60000FBE0F901F901895883109F488C08032EB
:102D700051F78093470214C0803409F49DC040F499
:102D80008033B9F38833F9F68093470285ECB0C0FD
:102D9000803509F485C0883509F496C0883499F6E1
:102DA0000E94B911D0CF883909F48CC038F5883722
:102DB00029F050F4883611F0803729F683E08093AB
:102DC00069021092CC0157C0883809F47BC0803961
:102DD00019F0803809F0B7CF8091CC01803208F02B
:102DE00071C0E091CC0181E08E0F8093CC01809185
:102DF000BB00F0E0E455FE4F80833DC0803B39F0DE
:102E0000E0F4803A09F479C0883A09F09CCF84E074
:102E1000809369021092AB011092AA01E091D00157
:102E2000F091D10109958091AA0181110FC081E033
:102E30008093AA0110928A0109C0803C09F4A6CFB0
:102E4000883C09F4A3CF883B09F07DCFE091AB012A
:102E500081E08E0F8093AB01F0E0E657FE4F80815A
:102E60008093BB009091AB018091AA0129C0809111
:102E700044028093BB0085EC8093BC0064CF9091AA
:102E8000460280914502981758F5E091460281E08C
:102E90008E0F80934602F0E0ED5DFD4F8081E9CF1B
:102EA000E091460281E08E0F809346028091BB0044
:102EB000F0E0ED5DFD4F80839091460280914502E8
:102EC0009817C8F285E8D8CFE091460281E08E0FCE
:102ED000809346028091BB00F0E0ED5DFD4F808362
:102EE0008091480281115CCF81E08093430284EAA3
:102EF0008093BC001092690226CF85EC8093BC00C1
:102F0000109269028091CC01803230F4E091CC01C2
:102F1000F0E0E455FE4F10826091CC0170E0E0914A
:102F2000CE01F091CF018CEA91E009951092CC018D
:102F30000ACF1092470234CFCF92DF92EF92FF92E6
:102F40000F931F93E82FF92F05C001501109210994
:102F5000310961F1908196239417B9F305C00150AE
:102F600011092109310911F1908196239413F7CFAA
:102F7000C12CD12CE12CF12C0AC08FEFC81AD80A31
:102F8000E80AF80A0C151D052E053F0579F0808129
:102F90008623841791F36C2D7D2D8E2D9F2D1F91EF
:102FA0000F91FF90EF90DF90CF90089560E070E078
:102FB00080E090E01F910F91FF90EF90DF90CF9015
:102FC00008950F931F93109272021092710288EE6F
:102FD00093E0A0E0B0E08093730290937402A0931A
:102FE0007502B09376022EE031E0309370022093A8
:102FF0006F0225EC30E030937C0220937B0224ECBE
:1030000030E030937E0220937D0220EC30E030935C
:10301000800220937F0221EC30E0309382022093E3
:10302000810222EC30E0309384022093830226EC6C
:1030300030E030938602209385021092880210922D
:10304000890210928A0210928B0210920F03109242
:103050000E038093100390931103A0931203B09377
:10306000130380E291E090930D0380930C0388E6B4
:103070008093BF031092C1031092C00388EF9AE2BD
:10308000A0E0B0E08093D0039093D103A093D2034B
:10309000B093D30380913C038C3008F0D0C091E012
:1030A000980F90933C038093BC0390E0FC01EE0FDB
:1030B000FF1FE80FF91FE85EFC4F88EB9BE092834F
:1030C000818380913C038C3008F0BDC091E0980F63
:1030D00090933C038093B90390E0FC01EE0FFF1F37
:1030E000E80FF91FE85EFC4F88EB9BE09283818339
:1030F00000E010E020E83FE30093A9031093AA0347
:103100002093AB033093AC031092AD031092AE0347
:103110001092AF031092B0031092B1031092B20359
:103120001092B3031092B4031092B5031092B60339
:103130001092B7031092B80310929D0310929E0351
:1031400010929F031092A0031092A1031092A20369
:103150001092A3031092A4031092A5031092A60349
:103160001092A7031092A80380E090E0A0E0B0E4E2
:103170008093850390938603A0938703B09388037D
:103180008093890390938A03A0938B03B0938C035D
:103190004DEC5CEC6CEC7DE340938D0350938E031F
:1031A00060938F037093900380936D0390936E03ED
:1031B000A0936F03B0937003809371039093720395
:1031C000A0937303B09374034093750350937603F5
:1031D000609377037093780380935503909356031D
:1031E000A0935703B09358030093590310935A03C5
:1031F00020935B0330935C0340935D0350935E0325
:1032000060935F037093600380933D0390933E034C
:10321000A0933F03B09340030093410310934203F4
:103220002093430330934403409345035093460354
:1032300060934703709348031F910F9108958FEF98
:103240008093BC033ECF8FEF8093B90351CFCF93D0
:10325000DF9300D0CDB7DEB7789484B5826084BDAB
:1032600084B5816084BD85B5826085BD85B581608A
:1032700085BD80916E00816080936E001092810008
:1032800080918100826080938100809181008160C3
:103290008093810080918000816080938000809184
:1032A000B10084608093B1008091B0008160809310
:1032B000B00080917A00846080937A0080917A00D7
:1032C000826080937A0080917A00816080937A0096
:1032D00080917A00806880937A001092C1001092E9
:1032E000FE011092FD0110920002109222020E9433
:1032F0000F088EE396E09093D1018093D0018FE385
:1033000096E09093CF018093CE018CE08093B8003B
:1033100061E08DE00E949F0560E086E00E949F05CD
:1033200062E082E00E949F0562E083E00E949F05C8
:1033300068E070E08CEB93E00E948C0769E070E03D
:1033400089EB93E00E948C0782E69BE09093010159
:1033500080930001809169008C7F81608093690077
:10336000E89A8EE29BE090930301809302018091A2
:103370006900837F846080936900E99A42E7C42EE4
:1033800048E0D42E5EE5A52E58E0B52E6AE4862EE0
:1033900068E0962E0091C0031091C10321E047E040
:1033A0006BE68091BF030E94100D6EE170E080E03B
:1033B00090E00E9400060091C0031091C10320E03C
:1033C00046E06BE68091BF030E94100D2091C00380
:1033D0003091C10340E76DE68091BF030E94870AE8
:1033E00086E00E949C0A2091C0033091C10340E016
:1033F0006DE68091BF030E94870A2091C00330913F
:10340000C1034FE765E28091BF030E94870A0091E4
:10341000C0031091C10320E045E06AE68091BF033C
:103420000E94100D2091C0033091C10348E665E26F
:103430008091BF030E94870A0091C0031091C103CD
:1034400021E041E06AE68091BF030E94100D64E133
:1034500070E080E090E00E940006E090C003F090F1
:10346000C10303E023E042E06BE68091BF030E94CA
:10347000BC0C2091C0033091C10342E168E380910C
:10348000BF030E94870A2091C0033091C10344E02A
:1034900069E18091BF030E94870AE090C003F09029
:1034A000C10301E023E045E06AE18091BF030E948F
:1034B000BC0CE090C003F090C10303E023E042E0C5
:1034C0006AE18091BF030E94BC0CE090C003F090C1
:1034D000C10322E044E06BE18091BF030E94BC0C79
:1034E00001E020E040E069E877E086E990E00E94B2
:1034F000D61081110BC0F6018491F501E490F4011E
:10350000F490F110B0C270E060E0C0C21982FF24F4
:10351000F394FA8200E026E142E062E070E0CE013E
:1035200001960E94D6102091C0033091C10343E060
:1035300060E78091BF030E94870A2091C003309109
:10354000C10340E061E78091BF030E94870A0091B8
:10355000C0031091C10320E040E060E08091BF0310
:103560000E94100D2091C0033091C10342E06FE131
:103570008091BF030E94870A2091C0033091C1034C
:103580004CE961E28091BF030E94870A2091C00349
:103590003091C10340E560E28091BF030E94870A39
:1035A0002091C0033091C10340E062E28091BF03EB
:1035B0000E94870A0091C0031091C10321E046E0F8
:1035C0006AE68091BF030E94100D0091C003109124
:1035D000C10321E043E06AE68091BF030E94100D21
:1035E0000091C0031091C10320E047E06AE680919A
:1035F000BF030E94100D8AE290E09093E303809352
:10360000E2038FEB93E00E944E0D8FEB93E00E945C
:10361000760C0091C0031091C10321E047E06AE6F7
:103620008091BF030E94100D8FEB93E00E94760CF7
:10363000F092D201E090C003F090C10303E022E0D9
:1036400044E06BE18091BF030E94BC0CE090C0039A
:10365000F090C10301E023E042E06AE18091BF0302
:103660000E94BC0C61E08DE00E94710560EA7FE081
:1036700080E090E00E94000600E010E028EA31E4DB
:103680004EEA57E461EA7EE38BE30E94F90D0FEF07
:103690001FEF2CEB32E44EEA57E461EA7EE383E469
:1036A0000E94F90D60E08DE00E94710568EE73E004
:1036B00080E090E00E94000666E470E08CEB93E00E
:1036C0000E94100766E470E089EB93E00E94100707
:1036D00064EF71E080E090E00E94000668E770E02F
:1036E0008CEB93E00E94100768E770E089EB93E0B1
:1036F0000E94100764EF71E080E090E00E940006F5
:103700006AE570E08CEB93E00E9410076AE570E0D8
:1037100089EB93E00E9410070E94F1112093E701CA
:103720003093E8014093E9015093EA016093EB0183
:103730007093EC018093ED010E94F1110E9432061A
:103740006093F0017093F1018093F2019093F30183
:1037500028EE822E23E0922EA12CB12C30E5232ED0
:10376000312C0E943206C090F001D090F101E0901F
:10377000F201F090F3016C197D098E099F096436FE
:1037800071058105910568F1E7E5F8E06491E3E4EE
:10379000F8E08491E82FF0E0EE0FFF1FE15EF74FB5
:1037A0008591949100E513EC20E030E0462F0E94D3
:1037B0009C17611571058105910529F06F5F7F4F99
:1037C0008F4F9F4F9F707093EF016093EE010E94A7
:1037D00032066093F0017093F1018093F2019093AF
:1037E000F3010E94F1112093E7013093E801409327
:1037F000E9015093EA016093EB017093EC0180932F
:10380000ED018091E9019091EA01803591050CF478
:1038100049C13092EA012092E9018091EB01909137
:10382000EC01803591050CF448C13092EC012092F6
:10383000EB018091E3019091E401A091E501B09149
:10384000E601803D9740A105B1058CF48091E3012C
:103850009091E401A091E501B091E601893EF3E089
:103860009F070CF435C19093E2018093E1018091B0
:10387000DD019091DE01A091DF01B091E001803D7A
:103880009740A105B1058CF48091DD019091DE0196
:10389000A091DF01B091E001893EF3E09F070CF4B5
:1038A0001AC19093DC018093DB012091DB01309100
:1038B000DC01032E000C440B550B285E33404109FC
:1038C0005109A3EBB0E00E94C11DA50194010E9423
:1038D000A21D29012091E1013091E201032E000C8B
:1038E000440B550B285E334041095109A3EBB0E06E
:1038F0000E94C11DA50194010E94A21DB901330FB0
:10390000880B990B0E94A51FAB01BC0185E593E0D4
:103910000E946E060E946D1F6B017093DA01609326
:10392000D901B201550C880B990B0E94A51FAB0160
:10393000BC018DE393E00E946E060E946D1FAB01F7
:103940007093D8016093D7018091EE019091EF01BF
:103950008C3D95400CF0DBC02091E9013091EA01EB
:103960008091EB019091EC01223031050CF4B6C04E
:10397000C21AD30AD092D601C092D501240F351FA6
:103980003093D4012093D301AC014F5F5F4F43309C
:10399000510560F0C81AD90AD092D601C092D5015B
:1039A000281B390B3093D4012093D3018091D5018A
:1039B0009091D601181619060CF4AEC01092D601DB
:1039C0001092D5018091D3019091D4011816190657
:1039D0000CF4ADC01092D4011092D3016091D501C6
:1039E0007091D601072E000C880B990B0E94A51F21
:1039F000AB01BC0185E893E00E946E060E946D1F3A
:103A00002B017093D6016093D5016091D301709121
:103A1000D401072E000C880B990B0E94A51FAB0147
:103A2000BC018DE693E00E946E060E946D1F6B0143
:103A30007093D4016093D301B2018CEB93E00E94A8
:103A40001007B60189EB93E00E94100780E090E038
:103A5000892B09F486CE0E943405882309F481CE8F
:103A60000E9400007ECE81110E944805EF2DF0E0FB
:103A7000EE0FFF1FE15EF74FA591B4918C91E82204
:103A800091E080E009F490E0692F782FF1E06F2752
:103A90008DE00E94710562E370E080E090E00E949A
:103AA000000678CC813B9F4F0CF0B7CE80EB9FEFA8
:103AB0009093EA018093E901B0CE813B9F4F0CF0D7
:103AC000B8CE80EB9FEF9093EC018093EB01B1CEE9
:103AD00088EE93E0C8CE88EE93E0E3CE2F3FFFEF71
:103AE0003F070CF445CF823091056CF0C81AD90A13
:103AF000D092D601C092D501481B590B5093D401E6
:103B00004093D30153CF8F3F2FEF92077CF3D09296
:103B1000D601C092D501F2CF833B91050CF452CF70
:103B200083EB90E09093D6018093D5014BCF833BFC
:103B300091050CF453CFE3EBF0E0F093D401E09364
:103B4000D3014CCF052E97FB1EF400940E94B91DA3
:103B500057FD07D00E94D41D07FC03D04EF40C94EF
:103B6000B91D50954095309521953F4F4F4F5F4F70
:103B7000089590958095709561957F4F8F4F9F4FD9
:103B800008950E94F61DA59F900DB49F900DA49FCF
:103B9000800D911D11240895B7FF0C94C11D0E9442
:103BA000C11D821B930B0895A1E21A2EAA1BBB1BF9
:103BB000FD010DC0AA1FBB1FEE1FFF1FA217B307F9
:103BC000E407F50720F0A21BB30BE40BF50B661F0F
:103BD000771F881F991F1A9469F7609570958095D3
:103BE00090959B01AC01BD01CF010895A29FB0014A
:103BF000B39FC001A39F700D811D1124911DB29F21
:103C0000700D811D1124911D0895991B79E004C048
:103C1000991F961708F0961B881F7A95C9F780950B
:103C20000895EE0FFF1F0590F491E02D0994505870
:103C3000BB27AA270E942F1E0C9442200E943420EA
:103C400038F00E943B2020F039F49F3F19F426F40D
:103C50000C940A200EF4E095E7FB0C940420E92F65
:103C60000E94532058F3BA17620773078407950719
:103C700020F079F4A6F50C9475200EF4E0950B2E47
:103C8000BA2FA02D0B01B90190010C01CA01A001AE
:103C90001124FF27591B99F0593F50F4503E68F109
:103CA0001A16F040A22F232F342F4427585FF3CF4A
:103CB000469537952795A795F0405395C9F77EF41B
:103CC0001F16BA0B620B730B840BBAF09150A1F064
:103CD000FF0FBB1F661F771F881FC2F70EC0BA0FEA
:103CE000621F731F841F48F4879577956795B79572
:103CF000F7959E3F08F0B0CF9395880F08F099276D
:103D0000EE0F9795879508950E94342060F080E823
:103D100091E009F49EEF0E943B2028F040E851E03A
:103D200071F45EEF0CC00C940A200C947520E92FFE
:103D3000E0780E94532040F3092E052AB1F326179C
:103D400037074807590738F00E2E07F8E02569F0C5
:103D5000E025E0640AC0EF6307F8009407FADB018E
:103D6000B9019D01DC01CA01AD01EF930E94121F50
:103D70000E9442200E94C71E5F91552339F02BED0F
:103D80003FE049E450FD49EC0C94181E0895DF9380
:103D9000DD27B92FBF7740E85FE3161617064807FF
:103DA0005B0718F4D92F0E9481209F938F937F93F4
:103DB0006F930E943C21E8E6F0E00E940D200E94F3
:103DC00042202F913F914F915F910E949C20DD23D3
:103DD00051F09058A2EA2AED3FE049EC5FE3D07839
:103DE0005D270E942F1EDF910C9442200E94E01F4D
:103DF00008F481E008950E940F1F0C9442200E9455
:103E00003B2058F00E94342040F029F45F3F29F015
:103E10000C94042051110C9476200C940A200E94DA
:103E2000532068F39923B1F3552391F3951B550B58
:103E3000BB27AA2762177307840738F09F5F5F4F7D
:103E4000220F331F441FAA1FA9F335D00E2E3AF0BC
:103E5000E0E832D091505040E695001CCAF72BD0D4
:103E6000FE2F29D0660F771F881FBB1F2617370725
:103E70004807AB07B0E809F0BB0B802DBF01FF2757
:103E800093585F4F3AF09E3F510578F00C94042010
:103E90000C9476205F3FE4F3983ED4F386957795B3
:103EA0006795B795F7959F5FC9F7880F911D969510
:103EB000879597F90895E1E0660F771F881FBB1F6C
:103EC000621773078407BA0720F0621B730B840B19
:103ED000BA0BEE1F88F7E09508950E94741F68944E
:103EE000B1110C94762008950E945B2088F09F57B2
:103EF00098F0B92F9927B751B0F0E1F0660F771F0E
:103F0000881F991F1AF0BA95C9F714C0B13091F003
:103F10000E947520B1E008950C947520672F782FCA
:103F20008827B85F39F0B93FCCF3869577956795C8
:103F3000B395D9F73EF490958095709561957F4F34
:103F40008F4F9F4F0895E89409C097FB3EF49095DA
:103F50008095709561957F4F8F4F9F4F9923A9F062
:103F6000F92F96E9BB279395F695879577956795F1
:103F7000B795F111F8CFFAF4BB0F11F460FF1BC035
:103F80006F5F7F4F8F4F9F4F16C0882311F096E9C8
:103F900011C0772321F09EE8872F762F05C0662376
:103FA00071F096E8862F70E060E02AF09A95660F2F
:103FB000771F881FDAF7880F9695879597F90895E8
:103FC000990F0008550FAA0BE0E8FEEF161617062A
:103FD000E807F907C0F012161306E407F50798F092
:103FE000621B730B840B950B39F40A2661F0232BAB
:103FF000242B252B21F408950A2609F4A140A69527
:104000008FEF811D811D089597F99F6780E870E00B
:1040100060E008959FEF80EC0895DF93CF931F93A6
:104020000F93FF92EF92DF927B018C01689406C0A0
:10403000DA2EEF010E949C20FE01E894A5912591C3
:10404000359145915591A6F3EF010E942F1EFE0177
:104050009701A801DA9469F7DF90EF90FF900F9134
:104060001F91CF91DF91089500240A941616170628
:1040700018060906089500240A9412161306140659
:1040800005060895092E0394000C11F4882352F0BC
:10409000BB0F40F4BF2B11F460FF04C06F5F7F4F74
:1040A0008F4F9F4F089557FD9058440F551F59F05B
:1040B0005F3F71F04795880F97FB991F61F09F3F15
:1040C00079F087950895121613061406551FF2CF3E
:1040D0004695F1DF08C0161617061806991FF1CF8E
:1040E00086957105610508940895E894BB276627B5
:1040F0007727CB0197F908950E94E01F08F48FEF0E
:1041000008959B01AC0160E070E080E89FE30C94AF
:10411000FB1E0E949C200C9442200E94342038F008
:104120000E943B2020F0952311F00C9404200C9465
:104130000A2011240C9476200E94532070F3959F3E
:10414000C1F3950F50E0551F629FF001729FBB278E
:10415000F00DB11D639FAA27F00DB11DAA1F649F2A
:104160006627B00DA11D661F829F2227B00DA11DDD
:10417000621F739FB00DA11D621F839FA00D611D63
:10418000221F749F3327A00D611D231F849F600D84
:10419000211D822F762F6A2F11249F5750409AF0AD
:1041A000F1F088234AF0EE0FFF1FBB1F661F771F39
:1041B000881F91505040A9F79E3F510580F00C9404
:1041C00004200C9476205F3FE4F3983ED4F3869568
:1041D00077956795B795F795E7959F5FC1F7FE2BA4
:1041E000880F911D9695879597F9089519F416F4FF
:1041F0000C940A200C9440210E945B20B8F3992370
:10420000C9F3B6F39F57550B87FF0E944E21002438
:10421000A0E640EA900180585695979528F4805C76
:10422000660F771F881F20F026173707480730F4DE
:10423000621B730B840B202931294A2BA6951794F6
:104240000794202531254A2758F7660F771F881FC6
:1042500020F026173707480730F4620B730B840BE6
:10426000200D311D411DA09581F7B901842F915872
:10427000880F9695879508959B01AC010C94892031
:104280009F3F31F0915020F4879577956795B795CA
:10429000880F911D9695879597F9089591505040F4
:1042A000660F771F881FD2F708950F931F93CF9340
:1042B000DF938230910510F482E090E0E091E60314
:1042C000F091E70330E020E0B0E0A0E0309799F40F
:1042D0002115310509F44AC0281B390B243031055A
:1042E000D8F58A819B816115710589F1FB01938362
:1042F0008283FE0111C040815181028113814817E0
:104300005907E0F04817590799F4109761F0129691
:104310000C93129713961C933296CF01DF91CF9195
:104320001F910F9108950093E6031093E703F4CFD4
:104330002115310551F04217530738F0A901DB016F
:104340009A01BD01DF01F801C1CFEF01F9CF9093D0
:10435000E7038093E603CDCFFE01E20FF31F8193C5
:1043600091932250310939832883D7CF2091E403D8
:104370003091E503232B41F4209106013091070190
:104380003093E5032093E40320910401309105016B
:104390002115310541F42DB73EB7409108015091E8
:1043A0000901241B350BE091E403F091E503E217CA
:1043B000F307A0F42E1B3F0B2817390778F0AC0148
:1043C0004E5F5F4F2417350748F04E0F5F1F509325
:1043D000E5034093E403819391939FCFF0E0E0E005
:1043E0009CCFCF93DF930097E9F0FC0132971382C3
:1043F0001282A091E603B091E703ED0130E020E0E6
:104400001097A1F420813181820F931F2091E40342
:104410003091E5032817390709F061C0F093E503EF
:10442000E093E403DF91CF910895EA01CE17DF070F
:10443000E8F54A815B819E0141155105B1F7E9011B
:10444000FB83EA8349915991C40FD51FEC17FD07EF
:1044500061F4808191810296840F951FE90199830F
:104460008883828193819B838A83F0E0E0E01296C7
:104470008D919C9113970097B9F52D913C911197CF
:10448000CD010296820F931F2091E4033091E50342
:104490002817390739F6309751F51092E703109233
:1044A000E603B093E503A093E403BCCFD383C283B8
:1044B00040815181840F951FC817D90761F44E5F61
:1044C0005F4F88819981480F591F518340838A81AA
:1044D0009B81938382832115310509F0B0CFF0933E
:1044E000E703E093E6039ECFFD01DC01C0CF13821A
:1044F0001282D7CFFB01DC0104C08D91019080199D
:1045000021F441505040C8F7881B990B0895F89446
:02451000FFCFDB
:10451200400640060000E803800000000000C704D7
:10452200410668041405990477048B040000000016
:0E453200FC0ACF0A2B0BA50AC80AB50AA60A76
:00000001FF
