:100000000C943E040C94C0110C9499110C94660449
:100010000C9466040C9466040C9466040C946604B8
:100020000C9466040C9466040C9466040C943F12C1
:100030000C9466040C9466040C9466040C94660498
:100040000C944F110C9466040C940D120C94E7114F
:100050000C9466040C9466040C9466040C94660478
:100060000C94FB120C946604084AD73B3BCE016EFD
:1000700084BCBFFDC12F3D6C74319ABD56833DDAFF
:100080003D00C77F11BED9E4BB4C3E916BAAAABE0E
:10009000000000803F00FB00003E000B0036000126
:1000A00000020003000000650054FFEF0000FA802A
:1000B000000B12820001000200000000000000009E
:1000C00000000000000000280000FFFF4581FFFF46
:1000D000FA7200000000000003E8000000010001C7
:1000E0007FFFFFFE8001001B0000000000000000F9
:1000F000000000000000004000004000000002CBB3
:1001000047A2200000002000000000000000400086
:1001100000006000000041FF000000000B2A00000A
:10012000165500002182FD872650FD800000001F2B
:100130000000000580000000000000010000000237
:10014000000000030000400000000000046F0002F7
:10015000653200005EC040000000000000000000AA
:10016000000000000000FB8C6F5DFD5D08D9007C85
:10017000733B006C12CC3200139D3200D0D632009B
:100180000800400001F4FFE6807902000000000052
:10019000D0D600002710FB00000040000000000047
:1001A000000000000000000000010000000000004E
:1001B0000100010000000000FA36FFBC308E00058F
:1001C000FBF0FFD95BC8FFD09ABE000010A9FFF476
:1001D0001EB200CEBBF700000001000000040002C8
:1001E00000020200000CFFC280000001800000CF6E
:1001F000800040000000000000000000000000003F
:1002000006000000001400000000000000000000D4
:1002100000000000000000000000000000000000DE
:100220000000000000000923A135000000000000CC
:1002300000000000000000000000033F68B67935B0
:1002400028BCC67ED16C8000FFFF4000000000008B
:10025000B26A000000000000000000000000000082
:100260003FF000000030000000000000000000002F
:10027000000000000000000000000000000000007E
:100280000000000040000000254D002F706D0000B0
:1002900005AE000C02D00000000000650054FFEF26
:1002A0000000000000000000010000440001000503
:1002B0008BC1000001000000000000650000005438
:1002C0000000FFEF00000000000000000000000040
:1002D000000000000000000000000000000000001E
:1002E000000000000000000000000000000000000E
:1002F00000000000000000000001000000020000FB
:1003000000000000000000000000000000000000ED
:1003100000000000000000000000000000000000DD
:10032000000000000000001B0000000000000000B2
:1003300000000000000000000000000000000000BD
:1003400000000000000000000000000000000000AD
:10035000000000000000001B000000000000000082
:10036000000000000000000000000000000000008D
:10037000000000000000000000000000000000007D
:10038000000000000000000000000000000000006D
:10039000000000000000D8DCBAA2F1DEB2B8B4A8B8
:1003A0008191F74A907F916AF3F9DBA8F9B0BAA07E
:1003B00080F2CE81F3C2F1C1F2C3F3CCA2B280F1DC
:1003C000C6D880BAA7DFDFDFF2A7C3CBC5B6F087F8
:1003D000A2942448703C95406834589B78A2F183DD
:1003E000922D557DD8B1B4B8A1D09180F270F37040
:1003F000F27C80A8F101B09887D943D886C988BA21
:10040000A1F20EB89780F1A9DFDFDFAADFDFDFF20C
:10041000AA4CCD6CA90CC92C97979797F1A989265E
:100420004666B0B4BA80ACDEF2CAF1B28C02A9B6AC
:100430009800890E161EB8A9B4992C547CB08AA8CD
:1004400096365676F1B9AFB4B083C0B8A89711B15B
:100450008F98B9AFF0240844106418F1A329557D92
:10046000AF83B593AFF0002850F1A3869F61A6DA61
:10047000DEDFD9FAA38696DB31A6D9F8DFBAA68FDC
:10048000C2C5C7B28CC1B8A2DFDFDFA3DFDFDFD810
:10049000D8F1B8A8B286B4980D355DB8AA98B087DF
:1004A0002D353DB2B6BAAF8C96198F9FA70E161E8A
:1004B000B49AB8AA872C547CB9A3DEDFDFA3B1803D
:1004C000F2C4CDC9F1B8A9B499830D355D89B9A33A
:1004D0002D557DB593A30E161EA92C547CB8B4B02F
:1004E000F19783A81184A50998A383F0DA2408441E
:1004F000106418D8F1A529557DA58595021A2E3AC4
:10050000565A4048F9F3A3D9F8F0988324084410C8
:1005100064189782A8F111F098A224084410641876
:10052000DAF3DED883A59401D9A302F1A2C3C5C72B
:10053000D8F18492A24DDA2AD84869D92AD86855C8
:10054000DA32D85071D932D8705DDA3AD85879D9C0
:100550003AD87893A34DDA2AD84869D92AD8685569
:10056000DA32D85071D932D8705DDA3AD85879D9A0
:100570003AD878A88A9AF02850789EF38818F19F84
:100580001D98A8D908D8C89F129EF315A8DA121092
:10059000D8F1AFC8978734B5B994A421F3D922D83C
:1005A000F22DF3D92AD8F235F3D932D881A460607C
:1005B00061D961D86C6869D969D8747071D971D8FA
:1005C000B1A384193D5DA3831A3E5E931030811060
:1005D00011B8B0AF8F94F2DA3ED8B49AA88729DA6E
:1005E000F8D8879A35DAF8D8879A3DDAF8D8B1B9C9
:1005F000A49885022E56A581000C14A397B08AF109
:100600002DD928D84DD948D86DD968D8B1840DDAFC
:100610000ED8A32983DA2C0ED8A3844983DA2C4C74
:100620000ED8B8B0A88A9AF520AADADFD8A840AACE
:10063000D0DADED8A860AADAD0DFD8F19786A83160
:100640009B069907AB9728889BF00C201440B8B004
:10065000B4A88C9CF0042851791D301438B282ABB8
:10066000D0982C505078789BF11AB0F08A9CA82929
:1006700051798B2951798A2470598B2058718A4479
:1006800069388B3940688A6448318B304960A58865
:10069000200971584468113964493019F1AC002CB3
:1006A000547CF08CA804285078F1889726A8599893
:1006B000AC8C02264666F0899CA829517924705991
:1006C000446938644831A98809205970AB11384011
:1006D00069A8193148608CA83C415C207C00F187F6
:1006E000981986A86E767EA999882D557D9EB9A306
:1006F0008A228A6E8A568A5E9FB183062646660ED5
:100700002E4E6E9DB8AD002C547CF2B18CB499B9CC
:10071000A32D557D8191AC38AD3AB58391AC2DD9DF
:1007200028D84DD948D86DD968D88C9DAE29D90420
:10073000AED851D904AED879D904D881F39DAD0093
:100740008DAE1981ADD901D8F2AEDA26D88E9129B5
:1007500083A7D9ADADADADF32AD8D8F1B0AC8991AE
:100760003E5E76F3AC2E2EF1B18C5A9CAC2C282830
:10077000289CAC3018A8988128343C9724A72834AA
:100780003C9C24F2B089AC912C4C6C8A9B2DD9D81E
:10079000D851D9D8D879D9D8D8F19E88A331DAD808
:1007A000D8912DD928D84DD948D86DD968D8B183DA
:1007B00093353D8025DAD8D88569DAD8D8B49381C5
:1007C000A328343CF3AB8BF8A391B609B4D9ABDEC4
:1007D000FAB0879CB9A3DDF1202830389AF128308F
:1007E000389DF1A3A3A3A3F2A3B49080F2A3A3A383
:1007F000A3A3A3A3A3A3A3B2A3A3A3A3A3A3B087C9
:10080000B599F128303898F1A3A3A3A397A3A3A384
:10081000A3F39BA330DCB9A7F1262626FED8FF0060
:10082000000000230026002900000000002400270B
:10083000002A0000000000250028002B000404040A
:100840000404040404020202020202030303030379
:100850000301020408102040800102040810200156
:100860000204081020000000080002010000030438
:10087000070000000000000000005F1411241FBEEC
:10088000CFEFD8E0DEBFCDBF11E0A0E0B1E0E2E203
:10089000F5E402C005900D92AE32B107D9F723E01E
:1008A000AEE2B1E001C01D92AE3BB207E1F714E049
:1008B000CEE3D4E004C02197FE010E94191ECD337F
:1008C000D107C9F70E9475150C948F220C94000073
:1008D000FC01538D448D252F30E0842F90E0821B46
:1008E000930B541710F0CF96089501970895FC01CB
:1008F000918D828D981761F0A28DAE0FBF2FB11D23
:100900005D968C91928D9F5F9F73928F90E008957A
:100910008FEF9FEF0895FC01918D828D981731F034
:10092000828DE80FF11D858D90E008958FEF9FEF88
:100930000895FC01918D228D892F90E0805C9F4F5E
:10094000821B91098F7399270895FC01A48DA80F2C
:10095000B92FB11DA35ABF4F2C91848D90E0019601
:100960008F739927848FA689B7892C93A089B18921
:100970008C91837080648C93938D848D981306C0C2
:100980000288F389E02D80818F7D80830895EF9226
:10099000FF920F931F93CF93DF93EC0181E0888F39
:1009A0009B8D8C8D98131AC0E889F989808185FF09
:1009B00015C09FB7F894EE89FF896083E889F989AB
:1009C00080818370806480839FBF81E090E0DF91AD
:1009D000CF911F910F91FF90EF900895F62E0B8D00
:1009E00010E00F5F1F4F0F731127E02E8C8D8E11BB
:1009F0000CC00FB607FCFACFE889F989808185FF22
:100A0000F5CFCE010E94A504F1CFEB8DEC0FFD2FA9
:100A1000F11DE35AFF4FF0829FB7F8940B8FEA89DC
:100A2000FB8980818062CFCFCF93DF93EC01888DEB
:100A30008823B9F0AA89BB89E889F9898C9185FD59
:100A400003C0808186FD0DC00FB607FCF7CF8C91E7
:100A500085FFF2CF808185FFEDCFCE010E94A504F6
:100A6000E9CFDF91CF91089585E792E00E94990444
:100A700021E0892B09F420E0822F089580E090E0A6
:100A8000892B29F00E94340581110C9400000895EF
:100A9000833081F028F4813099F08230A9F00895F4
:100AA0008730A9F08830C9F08430B1F4809180009B
:100AB0008F7D03C0809180008F77809380000895A0
:100AC00084B58F7784BD089584B58F7DFBCF8091E9
:100AD000B0008F778093B00008958091B0008F7D33
:100AE000F9CF1F93CF93DF93282F30E0F901EB5913
:100AF000F74F8491F901EF5AF74FD491F901E35C74
:100B0000F74FC491CC23A9F0162F81110E944805FC
:100B1000EC2FF0E0EE0FFF1FED5CF74FA591B491C5
:100B20008FB7F894EC91111108C0D095DE23DC93B7
:100B30008FBFDF91CF911F910895DE2BF8CFCF9318
:100B4000DF9390E0FC01EF5AF74F2491835C974FBD
:100B5000FC0184918823C9F090E0880F991FFC0163
:100B6000E75DF74FA591B491FC01ED5CF74FC5919E
:100B7000D49161110DC09FB7F8948C912095822378
:100B80008C938881282328839FBFDF91CF9108957C
:100B9000623051F49FB7F8943C91822F8095832363
:100BA0008C93E8812E2BEFCF8FB7F894EC912E2BFE
:100BB0002C938FBFEACF3FB7F8948091FF019091BB
:100BC0000002A0910102B091020226B5A89B05C0C7
:100BD0002F3F19F00196A11DB11D3FBFBA2FA92FBC
:100BE000982F8827BC01CD01620F711D811D911DB9
:100BF00042E0660F771F881F991F4A95D1F7089525
:100C00008F929F92AF92BF92CF92DF92EF92FF921C
:100C10004B015C010E94DB056B017C010E94DB053E
:100C20006C197D098E099F09683E73408105910505
:100C3000A8F321E0821A9108A108B10888EEC80E35
:100C400083E0D81EE11CF11C81149104A104B104BD
:100C500029F7FF90EF90DF90CF90BF90AF909F90DB
:100C60008F9008952FB7F8946091FB017091FC016B
:100C70008091FD019091FE012FBF08950895089580
:100C80000895AF92BF92CF92DF92EF92FF920F93AF
:100C90001F93CF93DF936C017B018B01040F151F12
:100CA000EB015E01AE18BF08C017D10759F069917A
:100CB000D601ED91FC910190F081E02DC6010995DE
:100CC000892B79F7C501DF91CF911F910F91FF908B
:100CD000EF90DF90CF90BF90AF900895CF92DF92CA
:100CE000EF92FF92CF93DF93EC01603282E07807BE
:100CF000CCF5653B710514F064EB70E0898128E860
:100D000030E0281B310987FD3395220F331F220F56
:100D1000331F6901330FEE08FF088A8128E532E0AE
:100D2000281B310987FD3395220F331F220F331FF4
:100D3000032E000C440B550B2C193D094E095F097D
:100D4000DB0177FF02C0B0E0A0E00E94D41D24EBDD
:100D500030E040E050E00E94AA1DC20ED31EE41E07
:100D6000F51EB601E881EC3070F5298188E890E045
:100D7000821B910927FD9395880F991F880F991F52
:100D8000681779077CF02A8188E592E0821B910937
:100D900027FD9395880F991F880F991F681779076A
:100DA0000CF4CB010297880F991F4FB7F8942E2FA0
:100DB00030E0F901EE0FFF1FE20FF31FE25EFC4F80
:100DC000928381834FBFDF91CF91FF90EF90DF90AF
:100DD000CF9008951F93CF93DF93EC01162F888156
:100DE0008C3008F04EC061E0812F0E949F05888101
:100DF000282F30E0F901EE0FFF1FE20FF31FE25E34
:100E0000FC4F1F736081607C612B608319821A82A2
:100E10002CE0622F0E940D1E829FB001112430E051
:100E200020E0AB01420F531FFA01EE0FFF1FE40F4A
:100E3000F51FE25EFC4F908196FD16C02F5F3F4F7D
:100E40002C30310571F781110FC01092800082E0C3
:100E5000809381001092850010928400B19A809155
:100E60006F00826080936F00E8818E2F90E0FC011C
:100E7000EE0FFF1FE80FF91FE25EFC4F80818064D8
:100E800080838881DF91CF911F9108952091570130
:100E9000260F3327331F21323105ECF420916F02E6
:100EA000FC0190E080E0243069F082E00895A09198
:100EB00057012191AC01495C5E4FA40FB52FB11DC4
:100EC0002C930196861798F380915701680F6093D1
:100ED000570180E0089581E0089510926F0281E04B
:100EE00080934E021092490261E082E10E947105F6
:100EF00061E083E10E947105E9EBF0E080818E7F83
:100F0000808380818D7F808388E48093B80085E42E
:100F10008093BC000895CF93DF9391E090933601C6
:100F20008823B9F0C091B800D091BA008091BC007C
:100F30008A7B8093BC0060E082E10E94710560E0E2
:100F400083E10E9471050E946D07D093BA00C0939F
:100F5000B800DF91CF910895CF92DF92EF92FF9288
:100F60000F931F93CF93DF93D82FC62F613208F0D2
:100F700098C00E94DB056B017C0180916F0281119A
:100F80006BC081E080936F0280934E029FEF90933D
:100F90004D0210924C029C0F90934B0280934A0298
:100FA00080914A02DD0FD82BD0934A0280914902EA
:100FB000813009F078C0109249020E94DB056B0174
:100FC0007C0180914A028093BB00809171029091D4
:100FD0007202A0917302B0917402892B8A2B8B2B21
:100FE000A1F00E94DB050091710210917202209124
:100FF0007302309174026C197D098E099F090617DE
:1010000017072807390708F448C08091BC0083FD02
:10101000D8CF85EC8093BC000E94DB056B017C017E
:1010200080916F02813009F440C080914C028C178E
:1010300010F4C0914C02E9E2F2E0AFE4B2E080E0EB
:101040008C1355C08C2FDF91CF911F910F91FF9082
:10105000EF90DF90CF90089580917102909172028D
:10106000A0917302B0917402892B8A2B8B2B09F407
:1010700084CF0E94DB0500917102109172022091D1
:101080007302309174026C197D098E099F0906174D
:1010900017072807390708F070CF809170020E9467
:1010A0008B07C0E0CFCF85EEB5CF809171029091D4
:1010B0007202A0917302B0917402892B8A2B8B2B40
:1010C00009F4AECF0E94DB0500917102109172020B
:1010D00020917302309174026C197D098E099F0969
:1010E000061717072807390708F09ACFD6CF91912E
:1010F0009D938F5FA5CF8F929F92AF92BF92CF9219
:10110000DF92EF92FF920F931F93CF93DF93D091D3
:101110002802D13208F0D7C0182FC09127020E94B0
:10112000DB056B017C0180916F0281116BC082E055
:1011300080936F0210934E028FEF80934D021092B6
:101140004C02D0934B02A7E0B2E0E9E2F2E080E08B
:10115000D81391C010924A0280914A02CC0FC82B3A
:10116000C0934A0280914902813009F088C01092F0
:1011700049020E94DB056B017C0180914A02809349
:10118000BB008091710290917202A0917302B091A4
:101190007402892B8A2B8B2BA1F00E94DB05009116
:1011A00071021091720220917302309174026C19D5
:1011B0007D098E099F09061717072807390708F4C4
:1011C00042C08091BC0083FDD8CF85EC8093BC00E9
:1011D0000E94DB056B017C0180916F02823009F473
:1011E00050C080914D028F3F09F46FC080914D0235
:1011F000803209F46CC080914D02803309F469C0DB
:1012000084E026C08091710290917202A0917302D5
:10121000B0917402892B8A2B8B2B09F484CF0E9406
:10122000DB058090710290907202A0907302B090E2
:1012300074026C197D098E099F0986169706A80607
:10124000B90608F070CF809170020E948B0785E08C
:10125000109206021092280210920502DF91CF919F
:101260001F910F91FF90EF90DF90CF90BF90AF90C4
:101270009F908F9008959D9191938F5F69CF85EE98
:10128000A5CF8091710290917202A0917302B091EA
:101290007402892B8A2B8B2B09F49ECF0E94DB05CD
:1012A00000917102109172022091730230917402C8
:1012B0006C197D098E099F0906171707280739073A
:1012C00008F08ACFC0CF81E0C3CF80E0C1CF82E0F9
:1012D000BFCF83E0BDCF0F931F93CF93DF938A01DE
:1012E000E901209711F4C2E1D3E091E09093050267
:1012F000809327021092060210922802E881F98159
:101300000190F081E02DCE010995D80111966C91E4
:10131000E881F9810190F081E02DCE010995E88105
:10132000F9810190F081E02DD8016C91CE010995F1
:1013300081E00E947B0891E0811190E0892FDF918C
:10134000CF911F910F910895DF92EF92FF920F932B
:101350001F93CF93DF93E42ED22EF32EE801209734
:1013600011F4C2E1D3E091E090930502809327024B
:101370001092060210922802E881F9810190F08112
:10138000E02DCE0109950D2D1F2DE00EF12EF11C43
:101390000E151F0559F0F80161918F01E881F9815F
:1013A0000190F081E02DCE010995F2CF81E00E94FD
:1013B0007B0891E0811190E0892FDF91CF911F91FF
:1013C0000F91FF90EF90DF9008950F931F93CF93AD
:1013D000DF931F92CDB7DEB7498389019E012F5F4E
:1013E0003F4F41E00E94A4090F90DF91CF911F91E0
:1013F0000F910895E5E9F3E021813281482F6EE6EF
:1014000080810C94E5090895E09104028091030223
:10141000E81730F4F0E0E15BFD4F808190E0089543
:101420008FEF9FEF089590910402809103022FEFB8
:101430003FEF981748F4E92FF0E0E15BFD4F208182
:1014400030E09F5F90930402C901089580910302E8
:1014500090910402891B990B0895CF92DF92EF922D
:10146000FF920F931F93CF93DF937C01CB018A01EF
:1014700020910502222389F0EB016B01C40ED51ED9
:10148000CC15DD0569F06991D701ED91FC910190D2
:10149000F081E02DC7010995F3CF642F0E94460724
:1014A000C801DF91CF911F910F91FF90EF90DF90D6
:1014B000CF900895CF93DF931F92CDB7DEB76983A6
:1014C000209105022223F9F020912802203258F0C1
:1014D00021E030E0FC013383228390E080E00F9034
:1014E000DF91CF91089580910602E82FF0E0E95F47
:1014F000FD4F998190838F5F80930602809328022D
:1015000081E090E0ECCF61E0CE0101960E944607B9
:10151000F7CF90E080E008950F931F930E94DB05C2
:101520000091320110913301209134013091350145
:10153000601771078207930700F10E94DB05009195
:101540003201109133012091340130913501601B3B
:10155000710B820B930B6093E1017093E201809316
:10156000E3019093E4010E94DB05609332017093E4
:10157000330180933401909335011F910F910895A9
:101580000F931F930E94DB0500912E0110912F01F4
:101590002091300130913101601771078207930764
:1015A00000F10E94DB0500912E0110912F01209186
:1015B000300130913101601B710B820B930B6093F2
:1015C000E7017093E8018093E9019093EA010E949A
:1015D000DB0560932E0170932F018093300190936F
:1015E00031011F910F9108952F923F924F925F9278
:1015F0006F927F928F929F92AF92BF92CF92DF9223
:10160000EF92FF920F931F93CF93DF9300D000D000
:1016100000D0CDB7DEB789836A83D42E3C832B8379
:10162000FE82ED820E9432064B015C01ED80FE805D
:10163000EF2821F482E193E09E838D83F12CE12C4D
:10164000C12C2D2C312C2801712C612CE214F304B7
:101650000CF05DC091E090930502A981A093270250
:101660001092060210922802AD81BE81ED91FC918C
:1016700011970190F081E02D6A81CD01099581E0FB
:101680000E947B08B1016E197F096132710514F067
:1016900060E270E0613208F060E289810E94AC078C
:1016A0001092040280930302AD81BE81ED91FC9102
:1016B00011970084F185E02DCD010995892BF9F072
:1016C0000115110589F4AD81BE81ED91FC91119751
:1016D0000284F385E02DCD010995EB81FC81EC0DB1
:1016E000F11D8083C394E0CF0E9432066819790906
:1016F0008A099B09641575058605970520F38D2DCC
:10170000B0E2BD1508F480E2E80EF11C9FCF011590
:10171000110589F00E943206681979098A099B0926
:1017200030E020E0601771078207930720F0CD14A6
:1017300010F4CC24CA948C2D26960FB6F894DEBFF4
:101740000FBECDBFDF91CF911F910F91FF90EF9012
:10175000DF90CF90BF90AF909F908F907F906F90D1
:101760005F904F903F902F900895EF92FF920F93CC
:101770001F93CF93DF93C5E9D3E0E980FA8008EEA9
:1017800013E028E933E042E062E788810E94F40A2E
:101790008B819C81982789279827DF91CF911F9172
:1017A0000F91FF90EF900895EF92FF920F931F9388
:1017B000CF93DF93EC01E980FA809C012D5F3F4FCE
:1017C00008EE13E041E06AE388810E94F40A8B810D
:1017D000DF91CF911F910F91FF90EF900895EF92BD
:1017E000FF920F931F93CF93DF931F92CDB7DEB776
:1017F000E0909603F090970308EE13E09E012F5FB0
:101800003F4F41E065E7809195030E94F40A8823E9
:1018100039F089818E7790E095958795809398032C
:10182000809198030F90DF91CF911F910F91FF90BE
:10183000EF9008957F928F929F92AF92BF92CF9236
:10184000DF92EF92FF920F931F93CF93DF931F923C
:10185000CDB7DEB7A82E962E742E822EB02E08EEAF
:1018600013E09E012F5F3F4F41E00E94F40A88235E
:1018700099F1872D8819990BAC014F5F5F4F81E07B
:1018800090E002C0880F991F8A94E2F70197042E16
:1018900001C0880F0A94EAF72B2D01C0220F4A9548
:1018A000EAF7482F4095B9804B218223482B498382
:1018B0009701692D8A2D0E94E5090F90DF91CF9144
:1018C0001F910F91FF90EF90DF90CF90BF90AF905E
:1018D0009F908F907F90089580E0EFCF8F929F929E
:1018E000AF92BF92CF92DF92EF92FF920F931F932E
:1018F000CF93DF931F92CDB7DEB7B82EA62E842EDE
:10190000922E6801780108EE13E09E012F5F3F4F91
:1019100041E00E94F40A81E090E001C0880F8A94BF
:10192000EAF749819920A9F0482B498396016A2D4D
:101930008B2D0E94E5090F90DF91CF911F910F91A0
:10194000FF90EF90DF90CF90BF90AF909F908F90DF
:10195000089580954823E9CF0F931F93FC010181DF
:10196000128121E042E06AE680810E946E0C1F91A4
:101970000F9108953F924F925F926F927F928F9254
:101980009F92AF92BF92CF92DF92EF92FF920F930E
:101990001F93CF93DF93782E662E6A017901E801B9
:1019A0000E9432064B015C01209711F4C2E1D3E0A2
:1019B00081E0809305027092270210920602109235
:1019C0002802E881F9810190F081E02D662DCE0199
:1019D000099581E00E947B0862E0872D0E94AC0798
:1019E000109204028093030201E010E02701712CA1
:1019F000612C33243394E881F9810084F185E02D52
:101A0000CE010995892BE9F111113BC0E114F104D4
:101A1000C9F4E881F9810284F385E02D01110CC03D
:101A2000CE010995F60120813181822B932B918380
:101A3000808311E00325DFCFCE010995F6011082E6
:101A40008183F8CF0E943206681979098A099B09B7
:101A50006415750586059705E0F20E943206AB0114
:101A6000BC01481959096A097B09C701B0E0A0E027
:101A7000481759076A077B0738F0111105C01FEF97
:101A800003C0E114F10449F7812FDF91CF911F9139
:101A90000F91FF90EF90DF90CF90BF90AF909F900D
:101AA0008F907F906F905F904F903F9008952F920E
:101AB0003F924F925F926F927F928F929F92AF92DE
:101AC000BF92CF92DF92EF92FF920F931F93CF932B
:101AD000DF93CDB7DEB7E7970FB6F894DEBF0FBE42
:101AE000CDBF8F8F48A759A76AA77BA70CA71DA7B3
:101AF0002EA73FA78B3309F040C20E94EF0B88331B
:101B000008F4ADC297E79F8BA3E0AA8FE0909603FD
:101B1000F090970308EE13E09E012F5F3F4F41E0E6
:101B20006CE1809195030E94F40A882351F0898129
:101B3000887190E023E0959587952A95E1F7809349
:101B400098038091980320E030E4790102C0F59475
:101B5000E7948A95E2F76EE385E792E00E94C70476
:101B6000CE010D969E8B8D8BDE011196B98FA88FBD
:101B70006C01BF88009196031091970328EE33E023
:101B8000AE014D5E5F4F6B2D809195030E94BA0CA4
:101B90008B889C88B401092C000C880B990B0E943F
:101BA000AD1FFF89F33109F4F0C121E082229924AD
:101BB000D6018D929C9220E030E040E051E40E94FA
:101BC0009120E88DF98D6083718382839383BA8D30
:101BD000BB0EE2E0CE0ED11C288D398D2C5F3F4F1D
:101BE000398F288F8D899E892817390719F69F8D7F
:101BF0009B3309F0D8C18DEC9CECACE4BDE388AB21
:101C000099ABAAABBBABA6E0B0E0BFA3AEA3C70144
:101C1000B0E0A0E08CAB9DABAEABBFAB19A218A2FD
:101C2000312C212CDE011196BE8FAD8FFE013D9629
:101C3000FBA3EAA3FF89FCA32F8D2DA3812C912C5C
:101C400054011C8E1B8E009196031091970328EE71
:101C500033E0AE014D5E5F4F6DA1809195030E9410
:101C6000BA0C6B897C89072E000C880B990B0E949B
:101C7000AD1F6B017C013F8D3B3391F48B8D9C8DAF
:101C8000029771F46CA97DA98EA99FA90E94AB1F30
:101C90009B01AC01C701B6010E941F1E6B017C01B4
:101CA0002601370177FA709477F87094C501B40172
:101CB0000E94AB1F4B015C0120E030E0A901C7018D
:101CC000B6010E948420181614F073016201A70166
:101CD0009601C501B4010E94201E0E947C1F4B0189
:101CE0005C012FE632E143E85AE3C301B2010E94EE
:101CF00091202CA53DA54EA55FA50E949120AD8DFC
:101D0000BE8D2D913D914D915C910E94201E6B01E5
:101D10007C01ED8DFE8DC082D182E282F38228A506
:101D200039A54AA55BA5C301B2010E949120A70174
:101D300096010E94201EFF89F33109F43EC120E084
:101D400030E040E05EE30E9491206B017C0120E0E6
:101D500030E0A9010E94842020E030E040E05FE311
:101D600087FD26C1C701B6010E94201E0E94751F73
:101D70006E7FAAA1BBA18D919C91682B792B7C8B46
:101D80006B8B2091960330919703AE014D5E5F4FB0
:101D90006CA1809195030E946B09EB8DFC8D3196AF
:101DA000FC8FEB8FFDA1FE5FFDA32CA13A8D230FCD
:101DB0002CA38AA19BA102969BA38AA3AD8DBE8D65
:101DC0001496BE8FAD8FEB8DFC8D339709F03BCF12
:101DD000F3E62F16310471F429EE821623E0920601
:101DE000A104B10438F06AE285E792E00E94C704DA
:101DF000312C212CC501B4010E94AB1F28A939A99F
:101E00004AA95BA90E94912020E030E040EA50E41A
:101E10000E94FE1E87FF05C088A199A1019699A383
:101E200088A394E689169104A104B10408F0E4C0E3
:101E3000ABE02A1631040CF4DFC0E8A1F9A13A970F
:101E40000CF4DAC06EE285E792E00E94C70420E05D
:101E500030E040E45FE368A579A58AA59BA50E94D0
:101E6000912068A779A78AA79BA720E030E040E4EB
:101E70005FE36CA57DA58EA59FA50E9491206CA710
:101E80007DA78EA79FA79E01235F3F4F6901FF8813
:101E9000CE0101963C01F301619171918191919183
:101EA0003F01FF89F33109F4BBC020E030E040E09E
:101EB0005EE30E9491204B015C0120E030E0A9012B
:101EC0000E94842020E030E040E05FE387FDA3C073
:101ED000C501B4010E94201E0E94751F6E7FD601AD
:101EE0008D919C91682B792B7C8B6B8B2091960329
:101EF00030919703AE014D5E5F4F6F2D809195033A
:101F00000E946B09BA8DFB0EE2E0CE0ED11C288D2B
:101F1000398D2615370509F0BECF8EA19FA10197F7
:101F20009FA38EA3892B09F079CE85E993E00E94C7
:101F3000AC0C009196031091970321E043E06AE610
:101F4000809195030E946E0CE7960FB6F894DEBF61
:101F50000FBECDBFDF91CF911F910F91FF90EF90FA
:101F6000DF90CF90BF90AF909F908F907F906F90B9
:101F70005F904F903F902F90089523E12F8B32E098
:101F80003A8FE12C80E2F82EE6CD20E030E040E808
:101F900050E40E949120A88DB98D6D937D938D930F
:101FA0009C93139714CE80E090E0A0E8BFE327CE87
:101FB000C701B6010E941F1ED9CE20E030E040E8E4
:101FC0005EE30E9491206B017C0120E030E0A901DA
:101FD0000E94842020E030E040E05FE387FD07C0FE
:101FE000C701B6010E94201E0E94751FC8CEC701FE
:101FF000B6010E941F1EF8CF61E070E080E090E023
:102000000E9400069FEF291A390AA4E62A16310415
:1020100009F008CE17CFC501B4010E941F1E5CCF86
:1020200020E030E040E85EE30E9491204B015C013B
:1020300020E030E0A9010E94842020E030E040E070
:102040005FE387FD07C0C501B4010E94201E0E9406
:10205000751F4ACFC501B4010E941F1EF8CFB6E01C
:10206000BF8BE2E0EA8F52CD2F923F924F925F9268
:102070006F927F928F929F92AF92BF92CF92DF9298
:10208000EF92FF920F931F93CF93DF9300D000D076
:10209000CDB7DEB73C014B01242E522E302E2091BD
:1020A0009603309197036DE6809195030E94E509B0
:1020B000852D0E94FA0980E190E00E945D215C017B
:1020C000002369F180E190E00E945D219C838B8375
:1020D000D12CC12CC6014096482C4C188816990664
:1020E00010F080E1482E80E091E0851991094816B2
:1020F000190619F014F0452C4194332099F0AB8166
:10210000BC8190E080E093012C0D3D1D841578F496
:10211000F901E80FF91FE491ED930196F7CF1C82C6
:102120001B82D6CFC3018C0D9D1D9C838B83009198
:102130009603109197032B813C81442D6FE680918B
:1021400095030E94A409842D90E09A838983A114A9
:10215000B10409F446C02091960330919703422DB3
:102160004F716DE6809195030E94E509852D0E94CF
:10217000FA09E0909603F090970308EE13E09501BA
:10218000442D6FE6809195030E94F40A49815A819B
:10219000B5018B819C810E948222892B11F1C5019E
:1021A0000E94F921332029F08B819C810E94F92122
:1021B000312C832D0F900F900F900F90DF91CF91C6
:1021C0001F910F91FF90EF90DF90CF90BF90AF9055
:1021D0009F908F907F906F905F904F903F902F9047
:1021E000089589819A81C80ED91EC814D904B8F4FB
:1021F000540C09F423942091960330919703422DB7
:102200004F716DE6809195030E94E509852D0E942E
:10221000FA0960CF8B819C810E94F921CACFC50148
:102220000E94F9213110F6CF33243394C2CF85EDCB
:102230008093BC008091710290917202A091730210
:10224000B09174020796A11DB11D23E0B695A79524
:10225000979587952A95D1F72091BC0024FD03C05E
:1022600010926F0208954091710250917202609134
:10227000730270917402452B462B472B69F300972C
:10228000A105B10541F025E32A95F1F7000001977A
:10229000A109B109E1CF809170020C948B071F92C4
:1022A0000F920FB60F9211242F933F938F939F930A
:1022B000AF93BF938091FB019091FC01A091FD0130
:1022C000B091FE013091FA0123E0230F2D3758F52C
:1022D0000196A11DB11D2093FA018093FB019093FB
:1022E000FC01A093FD01B093FE018091FF0190914C
:1022F0000002A0910102B09102020196A11DB11D40
:102300008093FF0190930002A0930102B093020218
:10231000BF91AF919F918F913F912F910F900FBEE1
:102320000F901F90189526E8230F0296A11DB11D4E
:10233000D2CF1F920F920FB60F9211242F933F937B
:102340004F935F936F937F938F939F93AF93BF93BD
:10235000EF93FF93E0910201F09103010995FF9142
:10236000EF91BF91AF919F918F917F916F915F910D
:102370004F913F912F910F900FBE0F901F90189586
:102380001F920F920FB60F9211242F933F934F93EA
:102390005F936F937F938F939F93AF93BF93EF93CD
:1023A000FF93E0910001F09101010995FF91EF91F8
:1023B000BF91AF919F918F917F916F915F914F915D
:1023C0003F912F910F900FBE0F901F9018951F9265
:1023D0000F920FB60F9211242F933F934F935F9359
:1023E0006F937F938F939F93AF93BF93EF93FF93DD
:1023F00085E792E00E94A504FF91EF91BF91AF9114
:102400009F918F917F916F915F914F913F912F910C
:102410000F900FBE0F901F9018951F920F920FB63E
:102420000F9211242F938F939F93EF93FF93E0913B
:102430008502F09186028081E0918B02F0918C02FE
:1024400082FD1BC0908180918E028F5F8F732091DF
:102450008F02821741F0E0918E02F0E0EB58FD4FC1
:10246000958F80938E02FF91EF919F918F912F9185
:102470000F900FBE0F901F9018958081F4CF1F9280
:102480000F920FB60F9211242F933F934F935F93A8
:102490006F937F938F939F93AF93BF93CF93DF936C
:1024A000EF93FF9380917A01C0914203D0E087FFC0
:1024B00024C0109285001092840080917A018F5F71
:1024C00080937A0180917A01082E000C990B8C1769
:1024D0009D0724F480917A018C30C4F180918400AE
:1024E00090918500049680349C4908F47AC08091CC
:1024F000840090918500049676C080917A01082E20
:10250000000C990B8C179D07C4F6E0917A018E2F71
:10251000EE0F990BFC01EE0FFF1FE80FF91FE25EB3
:10252000FC4F808186FFC9CFE0917A018E2FEE0F9C
:10253000990BFC01EE0FFF1FE80FF91FE25EFC4F45
:10254000808160E08F730E947105B7CF2091840075
:1025500030918500E0917A018E2FEE0F990BFC01EE
:10256000EE0FFF1FE80FF91FE25EFC4F81819281A1
:10257000820F931F9093890080938800E0917A01E5
:102580008E2FEE0F990BFC01EE0FFF1FE80FF91FC6
:10259000E25EFC4F808186FF11C0E0917A018E2FB0
:1025A000EE0F990BFC01EE0FFF1FE80FF91FE25E23
:1025B000FC4F808161E08F730E947105FF91EF9164
:1025C000DF91CF91BF91AF919F918F917F916F914B
:1025D0005F914F913F912F910F900FBE0F901F90E1
:1025E000189580E49CE990938900809388008FEF90
:1025F00080937A01E3CF1F920F920FB60F921124AE
:102600002F933F934F935F936F937F938F939F93FA
:10261000AF93BF93EF93FF938091B900887F80368B
:1026200009F44AC0F0F5883209F4A7C018F58031E2
:1026300009F49BC0B8F4882309F4F9C0883009F480
:1026400094C0FF91EF91BF91AF919F918F917F9136
:102650006F915F914F913F912F910F900FBE0F900F
:102660001F901895883109F488C0803251F7809303
:102670004D0214C0803409F49DC040F48033B9F396
:102680008833F9F680934D0285ECB0C0803509F4AB
:1026900085C0883509F496C0883499F60E941711D0
:1026A000D0CF883909F48CC038F5883729F050F438
:1026B000883611F0803729F683E080936F021092FC
:1026C000790157C0883809F47BC0803919F0803807
:1026D00009F0B7CF80917901803208F071C0E091A4
:1026E000790181E08E0F809379018091BB00F0E049
:1026F000E75AFE4F80833DC0803B39F0E0F4803ADA
:1027000009F479C0883A09F09CCF84E080936F0285
:102710001092580110925701E0917D01F0917E01D5
:1027200009958091570181110FC081E08093570175
:102730001092370109C0803C09F4A6CF883C09F407
:10274000A3CF883B09F07DCFE091580181E08E0F47
:1027500080935801F0E0E95CFE4F80818093BB00DC
:10276000909158018091570129C080914A0280932D
:10277000BB0085EC8093BC0064CF90914C028091AB
:102780004B02981758F5E0914C0281E08E0F809330
:102790004C02F0E0E75DFD4F8081E9CFE0914C0213
:1027A00081E08E0F80934C028091BB00F0E0E75DEA
:1027B000FD4F808390914C0280914B029817C8F294
:1027C00085E8D8CFE0914C0281E08E0F80934C02D7
:1027D0008091BB00F0E0E75DFD4F808380914E0269
:1027E00081115CCF81E08093490284EA8093BC0030
:1027F00010926F0226CF85EC8093BC0010926F027E
:1028000080917901803230F4E0917901F0E0E75A6B
:10281000FE4F10826091790170E0E0917B01F091B0
:102820007C0189E591E00995109279010ACF109217
:102830004D0234CFCF92DF92EF92FF920F931F930E
:10284000E82FF92F05C0015011092109310961F163
:10285000908196239417B9F305C0015011092109FD
:10286000310911F1908196239413F7CFC12CD12C0B
:10287000E12CF12C0AC08FEFC81AD80AE80AF80A2E
:102880000C151D052E053F0579F0808186238417E0
:1028900091F36C2D7D2D8E2D9F2D1F910F91FF900B
:1028A000EF90DF90CF90089560E070E080E090E0DE
:1028B0001F910F91FF90EF90DF90CF9008950F93AD
:1028C0001F93109278021092770288EE93E0A0E0B6
:1028D000B0E08093790290937A02A0937B02B09348
:1028E0007C022EE031E0309376022093750225ECD5
:1028F00030E0309382022093810224EC30E0309368
:1029000084022093830220EC30E0309386022093EF
:10291000850221EC30E0309388022093870222EC7C
:1029200030E030938A022093890226EC30E0309325
:102930008C0220938B0210928E0210928F021092C2
:10294000900210929102109215031092140380933A
:10295000160390931703A0931803B093190380E212
:1029600091E0909313038093120388E6809395037C
:10297000109297031092960388EF9AE2A0E0B0E0DD
:102980008093A6039093A703A093A803B093A903F1
:10299000809142038C3008F0A0C091E0980F909392
:1029A00042038093920390E0FC01EE0FFF1FE80FBB
:1029B000F91FE25EFC4F88EB9BE09283818380915C
:1029C00042038C3008F08DC091E0980F9093420341
:1029D00080938F0390E0FC01EE0FFF1FE80FF91FBB
:1029E000E25EFC4F88EB9BE09283818380E090E085
:1029F000A0E8BFE380937F0390938003A0938103BB
:102A0000B093820310928303109284031092850383
:102A10001092860310928703109288031092890304
:102A200010928A0310928B0310928C0310928D03E4
:102A300010928E0310927303109274031092750318
:102A40001092760310927703109278031092790314
:102A500010927A0310927B0310927C0310927D03F4
:102A600010927E0300E010E020E030E400935B036E
:102A700010935C0320935D0330935E0380935F03A8
:102A800090936003A0936103B09362034DEC5CEC00
:102A90006CEC7DE3409363035093640360936503A0
:102AA00070936603009343031093440320934503FC
:102AB000309346038093470390934803A0934903C0
:102AC000B0934A0340934B0350934C0360934D03E0
:102AD00070934E031F910F9108958FEF809392038F
:102AE0006ECF8FEF80938F0381CFCF93DF93CDB7DE
:102AF000DEB7E8970FB6F894DEBF0FBECDBF78946F
:102B000084B5826084BD84B5816084BD85B58260F2
:102B100085BD85B5816085BD80916E0081608093A3
:102B20006E0010928100809181008260809381000C
:102B3000809181008160809381008091800081601C
:102B4000809380008091B10084608093B100809177
:102B5000B00081608093B00080917A00846080939F
:102B60007A0080917A00826080937A0080917A0066
:102B7000816080937A0080917A00806880937A00E7
:102B80001092C100109204021092030210920602E9
:102B9000109228020E946D078EE396E090937E01CA
:102BA00080937D018FE396E090937C0180937B017D
:102BB0008CE08093B80061E08DE00E949F0560E0AA
:102BC00086E00E949F0562E082E00E949F0562E02D
:102BD00083E00E949F0568E070E082E993E00E9434
:102BE000EA0669E070E08FE893E00E94EA0680EC74
:102BF0009AE09093010180930001809169008C7F9D
:102C0000816080936900E89A8CE89AE090930301D0
:102C10008093020180916900837F846080936900C2
:102C2000E99A32E7C32E38E0D32E4EE5A42E48E0D1
:102C3000B42E5AE4852E58E0952E009196031091FB
:102C4000970321E047E06BE6809195030E946E0CAC
:102C50006EE170E080E090E00E9400060091960333
:102C60001091970320E046E06BE6809195030E9467
:102C70006E0C209196033091970340E76DE68091AA
:102C800095030E94E50986E00E94FA0920919603C7
:102C90003091970340E06DE6809195030E94E5092D
:102CA00020919603309197034FE765E28091950359
:102CB0000E94E509009196031091970320E045E0FA
:102CC0006AE6809195030E946E0C209196033091E4
:102CD000970348E665E2809195030E94E50900911B
:102CE00096031091970321E041E06AE680919503F5
:102CF0000E946E0C64E170E080E090E00E940006AB
:102D0000E0909603F090970303E023E042E06BE647
:102D1000809195030E941A0C20919603309197039D
:102D200042E168E3809195030E94E50920919603B2
:102D30003091970344E069E1809195030E94E50991
:102D4000E0909603F090970301E023E045E06AE10C
:102D5000809195030E941A0CE0909603F0909703DF
:102D600003E023E042E06AE1809195030E941A0C9F
:102D7000E0909603F090970322E044E06BE18091AD
:102D800095030E941A0C01E020E040E069E877E03A
:102D900086E990E00E94341081110BC0F601849105
:102DA000F501E490F401F490F11070C370E060E07C
:102DB00080C31982FF24F394FA8200E026E142E006
:102DC00062E070E0CE0101960E94341020919603DB
:102DD0003091970343E060E7809195030E94E509F5
:102DE000209196033091970340E061E7809195032D
:102DF0000E94E509009196031091970320E040E0BE
:102E000060E0809195030E946E0C209196033091B2
:102E1000970342E06FE1809195030E94E5092091BC
:102E20009603309197034CE961E2809195030E94EB
:102E3000E509209196033091970340E560E2809187
:102E400095030E94E509209196033091970340E095
:102E500062E2809195030E94E5090091960310912A
:102E6000970321E046E06AE6809195030E946E0C8C
:102E7000009196031091970321E043E06AE6809168
:102E800095030E946E0C009196031091970320E029
:102E900047E06AE6809195030E946E0C8AE290E01A
:102EA0009093B9038093B80385E993E00E94AC0C3A
:102EB00085E993E00E94D40B00919603109197034B
:102EC00021E047E06AE6809195030E946E0C85E957
:102ED00093E00E94D40BF092D801E0909603F0901A
:102EE000970303E022E044E06BE1809195030E94A8
:102EF0001A0CE0909603F090970300E023E042E084
:102F00006AE1809195030E941A0C00E010E028EA23
:102F100031E44EEA57E461EA7EE38BE30E94570D09
:102F20000FEF1FEF2CEB32E44EEA57E461EA7EE349
:102F300083E40E94570D61E08DE00E94710568E80E
:102F400073E180E090E00E94000660E08DE00E9466
:102F50007105E7E5F8E06491E3E4F8E08491E82F97
:102F6000F0E0EE0FFF1FE15EF74F8591949100E4D2
:102F700012E42FE030E0462F0E941A14611571050B
:102F80008105910529F06F5F7F4F8F4F9F4F9F7095
:102F90007093F9016093F8018091D801811195C275
:102FA00081E0C12CD12C7601460157012601370161
:102FB0004092EB015092EC016092ED017092EE01B3
:102FC0008092EF019092F001A092F101B092F20193
:102FD000C092F301D092F401E092F501F092F60173
:102FE0008093F70120E030E04CE852E4C501B401E1
:102FF0000E94842087FD08C380E090E0ACE8B2E442
:103000008093EF019093F001A093F101B093F2014E
:1030100020E030E04CE852E4C701B6010E94842071
:1030200087FD02C380E090E0ACE8B2E48093F30156
:103030009093F401A093F501B093F6018091E7011C
:103040009091E801A091E901B091EA01803D97409B
:10305000A105B1058CF48091E7019091E801A09160
:10306000E901B091EA01893E33E093070CF4ECC228
:103070009093E6018093E5018091E1019091E20156
:10308000A091E301B091E401803D9740A105B10515
:103090008CF48091E1019091E201A091E301B09163
:1030A000E401893EF3E09F070CF4D1C29093E00164
:1030B0008093DF012091E5013091E601032E000CA1
:1030C000440B550B285E334041095109A3EBB0E096
:1030D0000E94C91D28EE33E040E050E00E94AA1D86
:1030E00069013093DE012093DD012091DF013091F1
:1030F000E001032E000C440B550B285E33404109C0
:103100005109A3EBB0E00E94C91D28EE33E040E076
:1031100050E00E94AA1D29A33AA34BA35CA380916F
:10312000F8019091F9018C3D95400CF0DFC2409080
:10313000EF015090F0016090F1017090F2018090E9
:10314000F3019090F401A090F501B090F6012DEC00
:103150003CEC4CE45EE3C301B2010E94842087FD95
:1031600079C2C301B2010E94751FC61AD70AD09254
:10317000DC01C092DB01E9A0FAA0E60EF71EF09296
:10318000DA01E092D9012DEC3CEC4CE45EE3C501A0
:10319000B4010E94842087FF0AC02DEC3CEC4CE473
:1031A0005EEBC501B4010E94FE1E181684F0C50135
:1031B000B4010E94751FC61AD70AD092DC01C092D2
:1031C000DB01E61AF70AF092DA01E092D901609188
:1031D000DB017091DC01072E000C880B990B0E941B
:1031E000AD1F6B017C0180915F0390916003A09102
:1031F0006103B091620389A39AA3ABA3BCA32091FE
:103200005B0330915C0340915D0350915E03BC0110
:10321000CD010E94201E9B01AC0169A17AA18BA166
:103220009CA10E94031F4B015C0180926F0390924E
:103230007003A0927103B092720340906B035090A0
:103240006C0360906D0370906E03A3019201C7013F
:10325000B6010E941F1EA50194010E949120A301A6
:1032600092010E94201E6B017C01C0926703D092E4
:103270006803E0926903F0926A03AC019B01C30109
:10328000B2010E941F1E9F77209163033091640357
:1032900040916503509166030E9491202B013C01EF
:1032A000A501940160E070E080E89FE30E941F1E8A
:1032B00029A13AA14BA15CA10E9491209B01AC01E4
:1032C000C301B2010E94201E60935F0370936003EC
:1032D0008093610390936203C0926B03D0926C035E
:1032E000E0926D03F0926E03C701B6010E94751F54
:1032F0007093DC016093DB016091D9017091DA0178
:10330000072E000C880B990B0E94AD1F6B017C01EE
:103310008091470390914803A0914903B0914A03DB
:1033200089A39AA3ABA3BCA3209143033091440388
:103330004091450350914603BC01CD010E94201EDF
:103340009B01AC0169A17AA18BA19CA10E94031FE2
:103350004B015C018092570390925803A09259034D
:10336000B0925A0340905303509054036090550319
:1033700070905603A3019201C701B6010E941F1E5F
:10338000A50194010E949120A30192010E94201E98
:103390006B017C01C0924F03D0925003E092510325
:1033A000F0925203AC019B01C301B2010E941F1EA7
:1033B0009F7720914B0330914C0340914D035091E6
:1033C0004E030E9491202B013C01A501940160E075
:1033D00070E080E89FE30E941F1E29A13AA14BA143
:1033E0005CA10E9491209B01AC01C301B2010E942B
:1033F000201E609347037093480380934903909382
:103400004A03C0925303D0925403E0925503F092C2
:103410005603C701B6010E94751F7093DA016093CD
:10342000D9018091DB019091DC01181619060CF48A
:1034300068C11092DC011092DB018091D90190915A
:10344000DA01181619060CF467C11092DA0110920D
:10345000D9016091DB017091DC0182E993E00E9467
:103460006E066091D9017091DA018FE893E00E94B5
:103470006E0680E090E0892B09F46BCD0E94340544
:10348000882309F466CD0E94000063CD81110E945B
:103490004805EF2DF0E0EE0FFF1FE15EF74FA5911D
:1034A000B4918C91E82291E080E009F490E0692FDA
:1034B000782FF1E06F278DE00E94710562E370E0E4
:1034C00080E090E00E940006B8CB0E94EF0B8433AE
:1034D00009F066CD2090B8033090B90329A20E946C
:1034E000DB052B013C015101BB240E94B50B9C0163
:1034F000A816B9060CF063C0893C9105C4F185E9B2
:1035000093E00E94AC0C0E94B50B9C01892B09F042
:103510005AC00E94DB056419750986099709C09095
:10352000A603D090A703E090A803F090A903C616C5
:10353000D706E806F90638F740908B0150908C01C9
:1035400060908D0170908E0180908F01909090011D
:10355000A0909101B0909201C0909301D0909401FD
:10356000E0909501F09096018091970121CD0E9405
:10357000B50B9C01A816B90614F56C01CA18DB0836
:103580004601F1E2CF16D1041CF080E2882E912C86
:10359000882099F0E0909603F090970308EE13E0EE
:1035A0009E012F5F3F4F482D64E7809195030E9455
:1035B000F40AC818D90821F7DACF1982FACF2115F1
:1035C000310509F4B9CF2A153B0509F4B0C00E94B2
:1035D000DB056419750986099709C090A603D09088
:1035E000A703E090A803F090A903C616D706E80643
:1035F000F90608F07ACFA0CF10929801AAC06BED1F
:103600007FE089E490EC5EC220E030E04CE852ECD0
:10361000C501B4010E94FE1E18160CF4F9CC80E01E
:1036200090E0ACE8B2ECECCC20E030E04CE852ECBE
:10363000C701B6010E94FE1E18160CF4FFCC80E0F4
:1036400090E0ACE8B2ECF2CC88EE93E011CD88EEDD
:1036500093E02CCD2DEC3CEC4CE45EEBC301B201CD
:103660000E94FE1E18160CF07CCD2DEC3CEC4CE4B8
:103670005EE3C501B4010E94842087FD13C0C3012D
:10368000B2010E94751FC61AD70AD092DC01C092FF
:10369000DB01A9A1BAA16A0F7B1F7093DA016093C5
:1036A000D90195CD2DEC3CEC4CE45EEBC501B401A9
:1036B0000E94FE1E18167CF0C301B2010E94751F05
:1036C000C61AD70AD092DC01C092DB01E9A1FAA1A7
:1036D0006E0F7F1FE2CFD092DC01C092DB0129A1E7
:1036E0003AA13093DA012093D90171CDD092DC0157
:1036F000C092DB01A9A1BAA1B093DA01A093D901CC
:1037000090CE833B91050CF498CEE3EBF0E0F09380
:10371000DC01E093DB0191CE833B91050CF499CE63
:1037200023EB30E03093DA012093D90192CE99A1B6
:10373000992309F461CFE0909603F090970308EE87
:1037400013E028E931E0422D64E7809195030E945F
:10375000F40A60909C0170909D0176246724762481
:103760008090A0019090A101982489249824A09091
:10377000A401B090A501BA24AB24BA2460919801A9
:1037800070919901762767277627072E000C880B02
:10379000990B0E94AD1F20E030E040E858E30E9402
:1037A00091206B017C01C0927F03D0928003E09254
:1037B0008103F0928203B301770C880B990B0E946E
:1037C000AD1F20E030E040E858E30E9491202B013B
:1037D0003C0140928303509284036092850370926F
:1037E0008603B401990C880B990B0E94AD1F20E051
:1037F00030E040E858E30E94912069A37AA38BA3AC
:103800009CA36093870370938803809389039093AC
:103810008A03B501BB0C880B990B0E94AD1F20E0F9
:1038200030E040E858E30E9491206DA37EA38FA36F
:1038300098A760938B0370938C0380938D03909370
:103840008E039B01AC01C301B2010E9491204B0188
:103850005C0129A13AA14BA15CA1C701B6010E945C
:1038600091209B01AC01C501B4010E941F1E9B0168
:10387000AC010E94201E69AB7AAB8BAB9CAB609312
:103880007303709374038093750390937603A3017D
:103890009201C701B6010E9491204B015C012DA14C
:1038A0003EA14FA158A569A17AA18BA19CA10E941C
:1038B00091209B01AC01C501B4010E94201E9B0117
:1038C000AC010E94201E6DA77EA78FA798AB6093C6
:1038D0007703709378038093790390937A03A70119
:1038E0009601C701B6010E9491204B015C01A30122
:1038F0009201C301B2010E9491209B01AC01C5015C
:10390000B4010E941F1E4B015C0129A13AA14BA1E9
:103910005CA1CA01B9010E9491209B01AC01C501C3
:10392000B4010E941F1E4B015C012DA13EA14FA1BD
:1039300058A5CA01B9010E9491209B01AC01C501A3
:10394000B4010E94201E69A77AA78BA79CA7609349
:103950007B0370937C0380937D0390937E03A70188
:103960009601C701B6010E94201E4B015C01A30114
:103970009201C301B2010E94201E6DAB7EAB8FABE2
:1039800098AFA7019601C501B4010E9491206B0177
:103990007C01A30192016DA97EA98FA998AD0E9417
:1039A00091209B01AC01C701B6010E94201E20E0BE
:1039B00030E040E85FE30E941F1E6B017C0129A1FB
:1039C0003AA14BA15CA16DA97EA98FA998AD0E94D7
:1039D00091202B013C012DA13EA14FA158A5C5016D
:1039E000B4010E9491209B01AC01C301B2010E946D
:1039F0001F1EA70196010E949F1E2B013C014092B1
:103A00007F015092800160928101709282012DA508
:103A10003EA54FA558A9CA01B9010E9491206B018A
:103A20007C0129A53AA54BA55CA5CA01B9010E9454
:103A300091209B01AC01C701B6010E94201E0E948B
:103A400004219B01AC0169A97AA98BA99CA90E94B8
:103A50009F1E6B017C01C0928301D0928401E09291
:103A60008501F092860129A53AA54BA55CA56DA517
:103A70007EA58FA598A90E949F1E4B015C01809294
:103A8000870190928801A0928901B0928A0120E07A
:103A900030E0A90169A57AA58BA59CA50E94FE1E10
:103AA00087FF1AC020E030E0A901C701B6010E94DB
:103AB0008420A701960118160CF0A1CD6BED7FE0D4
:103AC00089E490E40E941F1E609383017093840137
:103AD000809385019093860120EE3EE245E652E414
:103AE000C301B2010E9491202B013C0120EE3EE275
:103AF00045E652E4C501B4010E9491204B015C01EE
:103B000020EE3EE245E652E460918301709184012B
:103B100080918501909186010E9491206B017C012A
:103B200040928B0150928C0160928D0170928E01B7
:103B300080928F0190929001A0929101B092920197
:103B4000C0929301D0929401E0929501F092960177
:103B500080E02ECA052E97FB1EF400940E94C11D22
:103B600057FD07D00E94DC1D07FC03D04EF40C94D7
:103B7000C11D50954095309521953F4F4F4F5F4F58
:103B8000089590958095709561957F4F8F4F9F4FC9
:103B900008950E94FE1DA59F900DB49F900DA49FB7
:103BA000800D911D11240895B7FF0C94C91D0E942A
:103BB000C91D821B930B0895A1E21A2EAA1BBB1BE1
:103BC000FD010DC0AA1FBB1FEE1FFF1FA217B307E9
:103BD000E407F50720F0A21BB30BE40BF50B661FFF
:103BE000771F881F991F1A9469F7609570958095C3
:103BF00090959B01AC01BD01CF010895A29FB0013A
:103C0000B39FC001A39F700D811D1124911DB29F10
:103C1000700D811D1124911D0895991B79E004C038
:103C2000991F961708F0961B881F7A95C9F78095FB
:103C30000895EE0FFF1F0590F491E02D0994505860
:103C4000BB27AA270E94371E0C944A200E943C20C2
:103C500038F00E94432020F039F49F3F19F426F4F5
:103C60000C9412200EF4E095E7FB0C940C20E92F45
:103C70000E945B2058F3BA17620773078407950701
:103C800020F079F4A6F50C947D200EF4E0950B2E2F
:103C9000BA2FA02D0B01B90190010C01CA01A0019E
:103CA0001124FF27591B99F0593F50F4503E68F1F9
:103CB0001A16F040A22F232F342F4427585FF3CF3A
:103CC000469537952795A795F0405395C9F77EF40B
:103CD0001F16BA0B620B730B840BBAF09150A1F054
:103CE000FF0FBB1F661F771F881FC2F70EC0BA0FDA
:103CF000621F731F841F48F4879577956795B79562
:103D0000F7959E3F08F0B0CF9395880F08F099275C
:103D1000EE0F9795879508950E943C2060F080E80B
:103D200091E009F49EEF0E94432028F040E851E022
:103D300071F45EEF0CC00C9412200C947D20E92FDE
:103D4000E0780E945B2040F3092E052AB1F3261784
:103D500037074807590738F00E2E07F8E02569F0B5
:103D6000E025E0640AC0EF6307F8009407FADB017E
:103D7000B9019D01DC01CA01AD01EF930E941A1F38
:103D80000E944A200E94CF1E5F91552339F02BEDEF
:103D90003FE049E450FD49EC0C94201E0895DF9368
:103DA000DD27B92FBF7740E85FE3161617064807EF
:103DB0005B0718F4D92F0E9489209F938F937F93DC
:103DC0006F930E944421E8E6F0E00E9415200E94D3
:103DD0004A202F913F914F915F910E94A420DD23B3
:103DE00051F09058A2EA2AED3FE049EC5FE3D07829
:103DF0005D270E94371EDF910C944A200E94E81F25
:103E000008F481E008950E94171F0C944A200E9434
:103E1000432058F00E943C2040F029F45F3F29F0F5
:103E20000C940C2051110C947E200C9412200E94B2
:103E30005B2068F39923B1F3552391F3951B550B40
:103E4000BB27AA2762177307840738F09F5F5F4F6D
:103E5000220F331F441FAA1FA9F335D00E2E3AF0AC
:103E6000E0E832D091505040E695001CCAF72BD0C4
:103E7000FE2F29D0660F771F881FBB1F2617370715
:103E80004807AB07B0E809F0BB0B802DBF01FF2747
:103E900093585F4F3AF09E3F510578F00C940C20F8
:103EA0000C947E205F3FE4F3983ED4F3869577959B
:103EB0006795B795F7959F5FC9F7880F911D969500
:103EC000879597F90895E1E0660F771F881FBB1F5C
:103ED000621773078407BA0720F0621B730B840B09
:103EE000BA0BEE1F88F7E09508950E947C1F689436
:103EF000B1110C947E2008950E94632088F09F5792
:103F000098F0B92F9927B751B0F0E1F0660F771FFD
:103F1000881F991F1AF0BA95C9F714C0B13091F0F3
:103F20000E947D20B1E008950C947D20672F782FAA
:103F30008827B85F39F0B93FCCF3869577956795B8
:103F4000B395D9F73EF490958095709561957F4F24
:103F50008F4F9F4F0895E89409C097FB3EF49095CA
:103F60008095709561957F4F8F4F9F4F9923A9F052
:103F7000F92F96E9BB279395F695879577956795E1
:103F8000B795F111F8CFFAF4BB0F11F460FF1BC025
:103F90006F5F7F4F8F4F9F4F16C0882311F096E9B8
:103FA00011C0772321F09EE8872F762F05C0662366
:103FB00071F096E8862F70E060E02AF09A95660F1F
:103FC000771F881FDAF7880F9695879597F90895D8
:103FD000990F0008550FAA0BE0E8FEEF161617061A
:103FE000E807F907C0F012161306E407F50798F082
:103FF000621B730B840B950B39F40A2661F0232B9B
:10400000242B252B21F408950A2609F4A140A69516
:104010008FEF811D811D089597F99F6780E870E0FB
:1040200060E008959FEF80EC0895DF93CF931F9396
:104030000F93FF92EF92DF927B018C01689406C090
:10404000DA2EEF010E94A420FE01E894A5912591AB
:10405000359145915591A6F3EF010E94371EFE015F
:104060009701A801DA9469F7DF90EF90FF900F9124
:104070001F91CF91DF91089500240A941616170618
:1040800018060906089500240A9412161306140649
:1040900005060895092E0394000C11F4882352F0AC
:1040A000BB0F40F4BF2B11F460FF04C06F5F7F4F64
:1040B0008F4F9F4F089557FD9058440F551F59F04B
:1040C0005F3F71F04795880F97FB991F61F09F3F05
:1040D00079F087950895121613061406551FF2CF2E
:1040E0004695F1DF08C0161617061806991FF1CF7E
:1040F00086957105610508940895E894BB276627A5
:104100007727CB0197F908950E94E81F08F48FEFF5
:1041100008959B01AC0160E070E080E89FE30C949F
:10412000031F0E94A4200C944A200E943C2038F0D7
:104130000E94432020F0952311F00C940C200C9445
:10414000122011240C947E200E945B2070F3959F16
:10415000C1F3950F50E0551F629FF001729FBB277E
:10416000F00DB11D639FAA27F00DB11DAA1F649F1A
:104170006627B00DA11D661F829F2227B00DA11DCD
:10418000621F739FB00DA11D621F839FA00D611D53
:10419000221F749F3327A00D611D231F849F600D74
:1041A000211D822F762F6A2F11249F5750409AF09D
:1041B000F1F088234AF0EE0FFF1FBB1F661F771F29
:1041C000881F91505040A9F79E3F510580F00C94F4
:1041D0000C200C947E205F3FE4F3983ED4F3869548
:1041E00077956795B795F795E7959F5FC1F7FE2B94
:1041F000880F911D9695879597F9089519F416F4EF
:104200000C9412200C9448210E946320B8F3992347
:10421000C9F3B6F39F57550B87FF0E945621002420
:10422000A0E640EA900180585695979528F4805C66
:10423000660F771F881F20F026173707480730F4CE
:10424000621B730B840B202931294A2BA6951794E6
:104250000794202531254A2758F7660F771F881FB6
:1042600020F026173707480730F4620B730B840BD6
:10427000200D311D411DA09581F7B901842F915862
:10428000880F9695879508959B01AC010C94912019
:104290009F3F31F0915020F4879577956795B795BA
:1042A000880F911D9695879597F9089591505040E4
:1042B000660F771F881FD2F708950F931F93CF9330
:1042C000DF938230910510F482E090E0E091BC032E
:1042D000F091BD0330E020E0B0E0A0E0309799F429
:1042E0002115310509F44AC0281B390B243031054A
:1042F000D8F58A819B816115710589F1FB01938352
:104300008283FE0111C040815181028113814817CF
:104310005907E0F04817590799F4109761F0129681
:104320000C93129713961C933296CF01DF91CF9185
:104330001F910F9108950093BC031093BD03F4CF18
:104340002115310551F04217530738F0A901DB015F
:104350009A01BD01DF01F801C1CFEF01F9CF9093C0
:10436000BD038093BC03CDCFFE01E20FF31F819309
:1043700091932250310939832883D7CF2091BA03F2
:104380003091BB03232B41F42091060130910701AA
:104390003093BB032093BA032091040130910501AF
:1043A0002115310541F42DB73EB7409108015091D8
:1043B0000901241B350BE091BA03F091BB03E2170E
:1043C000F307A0F42E1B3F0B2817390778F0AC0138
:1043D0004E5F5F4F2417350748F04E0F5F1F509315
:1043E000BB034093BA03819391939FCFF0E0E0E049
:1043F0009CCFCF93DF930097E9F0FC0132971382B3
:104400001282A091BC03B091BD03ED0130E020E029
:104410001097A1F420813181820F931F2091BA035C
:104420003091BB032817390709F061C0F093BB0333
:10443000E093BA03DF91CF910895EA01CE17DF0729
:10444000E8F54A815B819E0141155105B1F7E9010B
:10445000FB83EA8349915991C40FD51FEC17FD07DF
:1044600061F4808191810296840F951FE9019983FF
:104470008883828193819B838A83F0E0E0E01296B7
:104480008D919C9113970097B9F52D913C911197BF
:10449000CD010296820F931F2091BA033091BB0386
:1044A0002817390739F6309751F51092BD0310924D
:1044B000BC03B093BB03A093BA03BCCFD383C28326
:1044C00040815181840F951FC817D90761F44E5F51
:1044D0005F4F88819981480F591F518340838A819A
:1044E0009B81938382832115310509F0B0CFF0932E
:1044F000BD03E093BC039ECFFD01DC01C0CF13825E
:104500001282D7CFFB01DC0104C08D91019080198C
:1045100021F441505040C8F7881B990B0895F89436
:02452000FFCFCB
:10452200400640060000BE03800000000000C704F1
:10453200410668041405990477048B040000000006
:0E4542005A0A2D0A890A030A260A130A040AD5
:00000001FF
